:020000040800F2
:1000000080210020750200084524000863230008B1
:1000100041240008A1210008C330000800000000AE
:10002000000000000000000000000000F9290008A6
:100030002722000800000000A32800080D2B00085C
:100040008F0200088F0200088F0200088F0200084C
:100050008F0200088F0200088F0200088F0200083C
:100060008F0200088F0200088F0200088F0200082C
:100070008F0200088F0200088F0200088F0200081C
:100080008F0200088F0200088F0200088F0200080C
:100090008F0200088F0200088F0200088F020008FC
:1000A0008F0200088F0200088F0200088F020008EC
:1000B000712B0008012C0008A12C00088F020008F9
:1000C0008F0200088F0200088F0200088F020008CC
:1000D0008F020008B52D00083D2E00088F02000891
:1000E0008F0200088F0200088F02000800F002F85B
:1000F00000F0B0F80AA090E8000C82448344AAF112
:100100000107DA4501D100F0A5F8AFF2090EBAE80F
:100110000F0013F0010F18BFFB1A43F0010318473B
:10012000D84B0000F84B00000A444FF0000C10F8C8
:10013000013B13F0070408BF10F8014B1D1108BF65
:1001400010F8015B641E05D010F8016B641E01F805
:10015000016BF9D113F0080F1EBF10F8014BAD1C55
:100160000C1B09D16D1E58BF01F801CBFAD505E073
:1001700014F8016B01F8016B6D1EF9D59142D6D3CD
:10018000704700000023002400250026103A28BFF5
:1001900078C1FBD8520728BF30C148BF0B607047F9
:1001A0006E2900F0CF83702900F05F81662904F08A
:1001B000E380652904F0E080672904F0DD8061298F
:1001C00004F0DC8003681B0A28BF41F08001692924
:1001D00000F0D080642900F0CD80752900F0CA803D
:1001E0006F2900F0C684782900F02B81E92900F0FE
:1001F0006184E42900F05E84F52900F05B84EF2936
:1002000000F0C384F82900F02A810368DB0928BFC5
:1002100041F08001632900F0D083732900F0D58379
:10022000E32901F0D980F32901F0DE800020704736
:100230001FB501F0E9FA04000020002104F086F85F
:10024000401C60600020002104F06AF8E0601FBDDF
:1002500010B510BD01F0AAFA1146FFF7E9FF03F04F
:1002600023FF01F087FB03B4FFF7F2FF03BC03F0A9
:10027000F2FB00000948804709480047FEE7FEE717
:10028000FEE7FEE7FEE7FEE7FEE7FEE7FEE7FEE746
:1002900004480549054A064B70470000112B000829
:1002A000ED000008801B002080210020801D002020
:1002B000801D0020704700001CB50C46064B7B4497
:1002C00069460090204600F056FB0446002069462F
:1002D00000F064FB20461CBDDB0600000FB404499F
:1002E00010B503AA029800F075FB10BC5DF814FB72
:1002F000340000200FB41CB5084B06AA7B446946A5
:100300000090059800F037FB04460020694600F095
:1003100045FB20461CBC5DF814FB00009D06000058
:1003200070B50C460546012A05D02878800600D510
:10033000EA69002302E0012305E05B1C934202D23C
:10034000E05C0028F9D1A869E618C01AA861286AFB
:1003500018442862284600F063FA04E0D5E9012138
:1003600014F8010B9047B442F8D3284600F06EFA17
:1003700070BD00002DE9F041064600241068752983
:10038000314616A510D000F072FA002802DA404279
:1003900013A507E031688A0701D512A502E04907D5
:1003A00004D511A5012401E000F06AFA00210A2217
:1003B00006F1240709E0B0FBF2FCB0FBF2F302FB0C
:1003C0001C00303078541846491C0028F3D12346CD
:1003D0002A463046BDE8F04100F05BBA000000005C
:1003E0002D0000002B00000020000000F0B40D469E
:1003F0000188090502D5214C7C4402E01F4C7C4455
:100400000E34002100F1240608E002F00F07120963
:10041000E75D42EA03721B097754491C52EA03075D
:10042000F3D102780023120704D5702D06D009B14C
:10043000022311342246F0BC00F02BBA0123103401
:10044000F8E770B504460D462146106800F018FA2A
:10045000024629462046BDE870400023C6E7D21D6B
:1004600022F00703D3E90023C0E70368126843F0D2
:10047000200303600823C3610023B7E79C47000003
:100480002DE9F05F894604464FF0000ADFF874B1A9
:10049000FB44C0F820A02046E1688847002874D0BB
:1004A000252806D0D4E901219047206A401C20620B
:1004B000F1E700265F462046E16888472028054688
:1004C00007DB312D05D2781910F8200C08B106434E
:1004D000F1E7B00701D526F00406C4F81CA00027F8
:1004E000C4F818A02A2D09D0284603F0ADFA38B375
:1004F00004EB8708303DC8F8185019E059F8041B80
:10050000204604EB87029161E1688847012F054688
:1005100018D1E069002820DA26F020061DE0D8F87E
:10052000180000EB800005EB40003038C8F81800D8
:100530002046E1688847054603F086FA0028EED198
:10054000012F0AD02E2D08D12046E16888477F1C54
:100550000546022F46F02006C4DBA069002803DA16
:10056000404246F00106A061F00701D026F01006D7
:100570006C2D0BD0682D09D04C2D39D06A2D35D07B
:10058000742D35D07A2D33D016E038E0E1682F464F
:1005900020468847B842054609D16C2F26D04FF433
:1005A0008060E168064320468847054604E06C2FDA
:1005B0001AD04FF4807006430DB3A5F141001928FD
:1005C00002D8203546F400664A4629462046266071
:1005D0004E46FFF7E5FD80B101280BD0F61D26F051
:1005E000070000F1080956E74020E4E78020D8E73B
:1005F0000020D6E706F104094DE7284652E7206AB5
:10060000BDE8F09F2C4700000FB400B58DB010A9D5
:10061000099000910B904FF0FF300A9000200C9051
:10062000064878440690064878446A4607900F9931
:1006300009A800F0BBFA0DB05DF814FBA705000097
:10064000BF0500002DE9FF5F4FF0000899461446F2
:1006500046469169D2E901A7DDF838B0019888478C
:10066000054659EA0B0005D009E0A1690198761CFE
:1006700088470546216A284688470028F5D1681C26
:1006800003D05FEACA7005D015E04FF0FF3004B028
:10069000BDE8F09F2068011D2160D0F800800AE0CD
:1006A0005FEACA7001D108F8015BA169761C019864
:1006B0007F1E88470546002F1ADD681C18D0B9F147
:1006C000000F0DD0E81705EBD060421120F01F009D
:1006D00059F822102A1A012090400142E0D107E087
:1006E000BBF1000FDCD12846216A88470028D7D00B
:1006F000E16901988847BBF1000F07D1002E05DDA5
:100700005FEACA7002D1002188F80010A068B842E0
:1007100003DDBBF1000F03D017B16FF00100B6E7A6
:100720003046B4E730B505460B462A4613F8014B70
:1007300012F8010B08B1A042F8D01CB1002802D079
:100740006D1CF1E7284630BD10B5431C02E010F8DF
:10075000011B71B18107FAD14FF0013202C88C1A26
:100760008C4314EAC211F9D0C01A0A0603D0C01E85
:1007700010BDC01A10BD0A0401D0801E10BD0902B0
:10078000FCD0401E10BD4FF000020429C0F01280C2
:1007900010F0030C00F01B80CCF1040CBCF1020F34
:1007A00018BF00F8012BA8BF20F8022BA1EB0C0109
:1007B00000F00DB85FEAC17C24BF00F8012B00F8FF
:1007C000012B48BF00F8012B70474FF0000200B525
:1007D000134694469646203922BFA0E80C50A0E864
:1007E0000C50B1F12001BFF4F7AF090728BFA0E812
:1007F0000C5048BF0CC05DF804EB890028BF40F8DE
:10080000042B08BF704748BF20F8022B11F0804F1F
:1008100018BF00F8012B704770477047704770474A
:1008200070B5044685690068C10601D5302600E030
:100830002026C00707D070BDD4E90121304690477B
:10084000206A401C20626D1EF6D570BD70B504464E
:1008500085690078C00707D170BDD4E90121202047
:100860009047206A401C20626D1EF6D570BD096855
:100870004A0501D540B27047C905FCD500B27047A2
:1008800009684A0501D5C0B27047C905FCD580B2D8
:1008900070472DE9F0470D4699469246044600F10F
:1008A00024080168880604D5E06921F01001216060
:1008B00000E00120A84201DD471B00E00027A169FC
:1008C0007A1902EB0900081AA0612078C00602D448
:1008D0002046FFF7A5FF002608E0D4E901211AF819
:1008E00006009047206A401C761C20624E45F4DBCF
:1008F0002078C0060AD52046FFF792FF06E0D4E92B
:10090000012130209047206A401C2062381EA7F148
:100910000107F4DC07E0D4E9012118F8050090474D
:10092000206A401C2062281EA5F10105F3DC204648
:10093000FFF78CFF2078000602D50220BDE8F08783
:100940000120FBE711680268006A530501D50870B1
:100950000AE0D30501D5088006E0130603D5C217C7
:10096000C1E9000200E008600120704701694A1CEB
:1009700002610878704700B58FB0CDE901310021E0
:10098000059105497944CDE9031011466846FFF702
:1009900077FD0FB000BD0000E5FFFFFF0A6802F819
:1009A000010B0A60704710B5436913B1AFF30080C3
:1009B00001E0FFF7B5FC012010BD127800F1240121
:1009C0000A7000224A700122EDE711684FF0FF32F1
:1009D000E9E70000074B70B50D467B44FFF7CBFFFE
:1009E0000446284600F0BEFE10B14FF0FF3070BD47
:1009F000204670BD473400002DE9FF5F15468A464A
:100A00000446DFF8AC80F8440027D8E900103E46E1
:100A1000CDE9001010E03AF816106A4602A800F07E
:100A2000A5FE411C07D02178890603D5E269391853
:100A300091420DD80744761C2078800602D5E069E3
:100A4000B84205DDAE42E6DB3AF816000028E2D1F6
:100A5000A069C01BA0612046FFF7E2FED8E90010A4
:100A6000CDE90010002017E03AF818106A4602A8F5
:100A700000F07CFEB0F1FF3F81460BD000250DF168
:100A8000080B05E0D4E901211BF8050090476D1C17
:100A90004D45F7D308F10100B0428046E4DB206AFF
:100AA000384420622046FFF7D1FEBDE8FF9F0000DA
:100AB000CA4100002DE9F0418046D21D22F0070214
:100AC0000025D2E90002F52915A614D0011E72F105
:100AD000000106DA0023D0EB030063EB020211A64B
:100AE00008E0D8F800108B0701D50FA602E04907EF
:100AF00001D50EA601251146002408F1240704E0C3
:100B000000F084F830323A55641C50EA0102F7D103
:100B10002B46324621464046BDE8F041FFF7B9BEBC
:100B2000000000002D0000002B000000200000004D
:100B300030B4002100F1240408E002F00705D208D7
:100B4000303542EA4372DB086554491C52EA03051A
:100B5000F3D10468002310A2250707D5A40600D40A
:100B600021B1C46901230DA2641EC46130BCFFF72A
:100B700090BE10B5044621461068FFF781FE02467C
:100B80002046BDE810400023D2E7D21D22F0070125
:100B9000D1E90023CCE70000000000003000000095
:100BA000026811441378016018467047D160054906
:100BB000794451610449794411620021116111465F
:100BC00000F016BCEDFFFFFFDD000000426842B1FF
:100BD000016811F8013B23B1521EC0E9001218460A
:100BE00070470121C160881E704742685AB1C368CE
:100BF000016843B983688B4205D0491E521CC0E985
:100C00000012002070474FF0FF30704730B5B0F150
:100C10000A024FEA900E71F100034EEA817EB0EBBA
:100C20000E0061EB91014FEA101E4EEA017E10EBBF
:100C30000E0041EB11114FEA102E4EEA016E10EB3F
:100C40000E0041EB11214FEA104E4EEA014E10EB1F
:100C50000E0041EB1141401841F100014FEAD00074
:100C600040EA41704FEAD10110EB80054FEA810460
:100C700044EA907444EB01046D1944EB0404521BE4
:100C8000A3414FF0000348BF0A3200D530BD401CDD
:100C900041F1000130BD10B5044600F0ADFD006823
:100CA000005D00F0010010BD70472DE9FF4F0C46BC
:100CB0001E464FF0FF378BB0D2E90001DDF86080AF
:100CC0000A908A46C1F30A5505B93D4600210846F7
:100CD0004FF00000BAF1000F00F4400005DA00EB1D
:100CE00080004FF4400101EA50004FEA9059B9F1F9
:100CF000010F00DDB9460A9850EA4A000ED044F6CA
:100D00001050A5F2FF3545432F14B8F1000F1ED047
:100D10007542291E1EDDC9F100021CE0B8F1010F69
:100D20004FF0000001D0302103E0F24305E02154F0
:100D3000401CB042FBDB30460022002121540B99BD
:100D4000C1F80880C1E900200FB0BDE8F08FBD1BDD
:100D50006D1CDEE74A4600DA694206A800F098FDFD
:100D600006AB93E8070003AB83E8070050460A99F7
:100D700000F04EFE8DE80700A0F500501F380090EF
:100D80000398002D0ADD42F21F014A460844002361
:100D900003A90390684601F0B7F809E0A0F50050F8
:100DA0004A461F38002303A90390684601F0C1F8A2
:100DB0008DE807000004000C03D04FF0FF3041081D
:100DC00000E01046B8F1000F03D000220092154653
:100DD0001EE0751E05D4FFF719FF303262556D1EF7
:100DE000F9D5B3460122084302D000227F1C04E05B
:100DF0002078302801D100227F1E002A099784D054
:100E00001DE0112D07DAFFF701FF303262556D1C2E
:100E100050EA0102F5D1084302D00098C8B10EE0B3
:100E20000021681E05E0235C625C63542254401E6E
:100E3000491C8142F7DBAB46A81B401E09900020ED
:100E400004F80B000B98099AC0F80880C0E9002B41
:100E50007AE711264FF0000857E72DE9F04F884652
:100E60000446D21D22F0070191B0D1E90001CDE97D
:100E70000A0102F0D5FD02460B98C00F01D02D20CB
:100E800007E02068810701D52B2002E0202101EA3C
:100E9000C000032A099001D0072A05DB034641461A
:100EA000204600F0B5FC0BE12078800601D5E06912
:100EB00000E00620B8F1650F814606D0B8F1660F54
:100EC00018D0B8F1670F70D131E00020B9F1110FDF
:100ED000009001DB112301E009F101030AAA01A935
:100EE0000CA8FFF7E2FEDDE90C70002609F1010510
:100EF000834647E001204B4600904FF000470AAA86
:100F000001A90CA8FFF7D1FEDDE90DB00C995D46F3
:100F1000002610B909F101000D18B9EB050003D442
:100F2000C0F1FF3609F10105A5EB09002BE0B9F18D
:100F3000010F01DA4FF001090020B9F1110F009003
:100F4000484601DD112300E003460AAA01A90CA8C6
:100F5000FFF7ABFEDDE90C704D4600268346207896
:100F600000070AD4AB4500DA5D4601A8012D04DD77
:100F7000411911F8011C302907D04F4502DA17F149
:100F8000040F04DA012082460FE06D1EEEE7002F09
:100F900002DCED1B3E4403E0781CA84200DD7D1C12
:100FA000B81B00F1010A4FF000472078000703D476
:100FB000AA4501DB4FF0FF3A0021B7F1004F0DF1D8
:100FC00043088DF8431024D002202B23002F01DA90
:100FD0007F422D230A21021EA0F1010000DC5FB137
:100FE00097FBF1FC97FBF1F201FB1C7C17460CF11F
:100FF000300C08F801CDEEE7A8F10100037021885C
:10100000090501D5452100E06521A0F1010800F89E
:10101000011C09980FA9A1EB0807FF1D00B10120D1
:10102000411901EBEA70A1693844081A401EA06119
:101030002078C00602D42046FFF7F2FB099828B1B9
:10104000D4E901219047206A401C20622078C00624
:1010500022D52046FFF7E4FB1EE0002E04DBB3455B
:1010600002DD01A8805D00E03020D4E90121904735
:10107000206A401C2062761CAAF101005FEA000A87
:101080000AD100F0C1FBC0680168405CD4E90121CD
:101090009047206A401C2062281EA5F10105DCDC77
:1010A00007E0D4E9012118F8010B9047206A401CA1
:1010B0002062381EA7F10107F3DC2046FFF7C6FBCC
:1010C000032011B041E600002DE9F04F04460D4623
:1010D000D21D22F0070089B0D0E900974846394672
:1010E00002F09EFC0246F80F01D02D2307E0206895
:1010F000810701D52B2302E0202101EAC0038DF8EE
:1011000020300BB1012000E00020032A824601D0EC
:10111000072A04DB2946204600F07AFB3FE12078CD
:10112000800601D40D2500E0E569C7F30A560D2DB0
:1011300049DA00214FEA175B08464FF00000002F04
:1011400000F4400007DA00EB80004FF4400100EBB0
:10115000D07001EA60008115012901DD4FF0FF31F7
:1011600000224FEA850CBCF1180F06D31346ACF1F0
:1011700018004FF08052C24003E04FF4801323FA6E
:101180000CF30CF10C0CBCF1200F04D3ACF1200CCF
:1011900009FA0CF001E007FA0CF000294FF00048C2
:1011A00001DD18B90FE00ED140450CD319EB02094F
:1011B0005F4121B9404502D19F4329EA0209BBEBB7
:1011C000175F00D0761C2088000502D57B48784444
:1011D00002E07A487844193808AA302302F80A3025
:1011E000037C0AF10101002E0AF1020A53546A46F7
:1011F00002DC4FF0300101E04FF031014FF0010807
:101200008DF8001002D0A6F2FF3603E059EA47013C
:1012100000D06B4E002D02DC2178090704D54FF079
:1012200002082E218DF80110C44600210BE0C7F3FF
:1012300003433F01C35C491C6D1E02F808300529B9
:1012400008F1010801DA002DF1DC00210CE000EBCF
:101250001973491C1B786D1E082902F808304FEAE3
:10126000091908F1010801DA002DF0DC21688B066C
:1012700002D516E0A8F10108E04505DD02EB080300
:1012800013F8013C302BF5D0B8F1000F09DD02EB6B
:10129000080313F8013C2E2B03D1090701D4A8F150
:1012A0000108002D05DD3E2102F808106D1E08F131
:1012B0000108407C002E02F8080008F1010804DA59
:1012C0002D20764202F8080002E02B2002F80800E8
:1012D0000A214FF47A70864208F101080BDB96FB75
:1012E000F0F3303302F8083096FBF0F308F1010810
:1012F00000FB136601E0642E0CDB642096FBF0F328
:10130000303302F8083096FBF0F308F1010800FBD7
:10131000136601E00A2E06DB96FBF1F0303002F88E
:10132000080008F1010896FBF1F001FB1060303075
:1013300002F80800A16908F1010808EB050202EBB8
:101340000A00081AA0612078C00602D42046FFF7E0
:1013500067FA216A08AE01EB0A00206204E0D4E9D2
:10136000012116F8010B9047BAF1010AF7D2207853
:10137000C00602D52046FFF753FA6E4609E016F87C
:10138000010B3E280FD0D4E901219047206A401C70
:101390002062B8F10108F2D22046FFF757FA09B0EF
:1013A0000320BDE8F08F206A2844206203E0D4E9DE
:1013B0000121302090476D1EEBD3F8E71D3A000065
:1013C00002FCFFFF10B5436913B1AFF3008001E0E9
:1013D000FFF712FB012010BD128800F12401828466
:1013E0000022C2840122EDE711684FF0FF32E9E7E5
:1013F0002DE9F34F4FF0000A0C4656468DB0012000
:101400000C9001F10C000B9062690B980121904740
:10141000051E2DD0252D2CD0216A8847C0B16269C8
:101420000B9801219047216A88470028F7D162690B
:10143000411E0B98904700E0761CA1690D988847E3
:10144000216A88470028F7D1E1690D988847DBE7D2
:10145000A1690D988847A842074601D1761CD3E7B9
:10146000E1690D9888477F1C02D1BAF1000F6FD057
:101470006BE162690B9800273D46394690472A2860
:1014800004D162690B98012190470125DFF8D082D1
:1014900062690B9801219047A0F130010A290AD214
:1014A0004745E5DC07EB870100EB4107303FDFD420
:1014B00045F01005ECE7E90601D46FF000476C2811
:1014C0000AD04C2814D0682815D06A280DD074286A
:1014D0001CD07A281AD01DE062690B980121904730
:1014E0006C2802D045F0040514E045F002050DE03B
:1014F00045F020050AE062690B98012190476828B1
:1015000002D045F0080505E045F4006562690B98D6
:1015100001219047C4E9015765283DD019DC5828BE
:101520007AD00CDC452837D004DC252826D0412889
:101530009ED131E046282FD0472899D12CE05B2856
:1015400077D0612828D063287CD0642823D15AE042
:10155000F6E06F2848D008DC66281DD067281BD02D
:10156000692821D06E2816D127E0702845D073282D
:1015700068D0752847D078280DD14DE0A1690D9825
:101580008847252805463FF469AFE1690D988847EB
:101590006D1C3FF46AAFD8E00D9923466A466FF0A0
:1015A0000100AFF30080C5E045F0400023464FF056
:1015B00000026060A80736D43EE0E8077FF447AF3A
:1015C0002068011D21600068290501D506701BE710
:1015D000290701D5068017E7A90703D5F117C0E948
:1015E000006111E706600FE745F0400023464FF029
:1015F00008026060A80716D41EE040F60E0125EA36
:101600000100606016E045F0400023464FF00A02FA
:101610006060A80707D40FE045F040006060A807AD
:1016200008D5234610220D996FF00100AFF300801A
:1016300080E007E0102223460D996FF00100AFF320
:10164000008077E04FF0000963284F46C8464B46BC
:10165000CB4602D05B2806D038E0E80601D4012052
:10166000A060012732E06269D4F80CB00B98012128
:1016700090475E2807D14FF0010949466269D4F8C6
:101680000CB00B989047216939B900210A4603AB89
:1016900043F82120491C0829FADBD8B3216949B352
:1016A00008F1010862690B98012190475D28F4D187
:1016B000B9F1000F09D0002003A951F82020D2432E
:1016C00041F82020401C0828F7DB03AB20690028E4
:1016D00020794FEA40701ED05B462246CDF800804C
:1016E000CDE901970D9900286FF0010020DAAFF3E2
:1016F00000801FE0C11703AA00EBD1614B1121F05C
:101700001F0102EB8302411A136801208840034342
:101710001360C7E719E00D99224600286FF0010019
:10172000009702DAAFF3008004E0FEF78BFF01E0E0
:10173000AFF3008000280ADA401C06D10C9820B1D3
:101740004FF0FF300FB0BDE8F08F5046FAE7E907E1
:1017500001D10AF1010A064400200C9054E6000071
:10176000CCCCCC0C007B00F08000704770B51646E6
:101770000C46054600F040F8036893F80101012883
:1017800006D0FF2C0FD8185D68B101202C7070BDF9
:10179000D3F807013246214603F2071303442846D3
:1017A000BDE8704018474FF0FF3070BD754600F03F
:1017B000EBF8AE4605006946534620F00700854623
:1017C00018B020B5FEF764FDBDE820404FF00006DC
:1017D0004FF000074FF000084FF0000B21F0070119
:1017E000AC46ACE8C009ACE8C009ACE8C009ACE85C
:1017F000C0098D467047000010B500F005F8001DC7
:1018000010BD00BF492B000000487047401B00205E
:101810002DE9F0411F46044603260168072A01F41A
:10182000006004DB08B116A505E016A503E008B1C9
:1018300015A500E015A521F010002060A069C01ECC
:10184000A0610FB1401EA0612046FEF7E9FF4FB135
:10185000D4E9012138469047206A401C2062C01C10
:10186000206206E0206AFAE7D4E9012115F8010BAD
:101870009047761EF8D22046FEF7E8FFBDE8F081DB
:101880004E414E006E616E00494E4600696E660024
:101890002DE9F047814616468AB0354878440DC890
:1018A0008DE80D0032487844801C03AC0DC884E8F4
:1018B0000D0041F69B300844372190FBF1F290FB7C
:1018C000F1F5A5F1800501FB12041B3C02D5644231
:1018D000012000E00020DFF898A080460027FA44AD
:1018E000AAF1BE0A0EE0E0070AD03246684607EBCE
:1018F000470101230AEB810100F01BFB8DE8070083
:1019000064107F1C002CEED1194F7F44AE3F19E0CC
:10191000E80715D007EB04100DF1180A90E80E0047
:101920008AE80E00C068F04201D19819089032464A
:10193000012306A903A800F0FCFA03AB83E8070023
:101940006D10641C002DE3D14FF00103324669464F
:10195000B8F1000F03A802D000F0D6FA01E000F0C1
:10196000E8FAC9E90001C9F808200AB0BDE8F08723
:10197000E033000010B50446AFF300802046BDE818
:101980001040FEF770BC000000487047201B00208C
:101990004FF0013C50F8042B51F8043B9A4221D1FE
:1019A000A2EB0C03934313EACC1317D150F8042B8A
:1019B00051F8043B9A4215D1A2EB0C03934313EA6E
:1019C000CC130BD150F8042B51F8043B9A4209D1A7
:1019D000A2EB0C03934313EACC13DBD04FF00000CF
:1019E000704700BFD01A01BAB1FA81F101F01801B5
:1019F00022FA01F0CB40C1F12001DBB2C0B2C01A23
:101A00002CFA01F3D11A914311EAC311E6D17047C0
:101A10005FEA400C08BF91F0000F4FEA8C234FEAB9
:101A2000C12243EA51514FEA1C5018BF00F5F04063
:101A30004FEA300018BF41F000415FEA6C5C00F0F3
:101A40002980BCF1FF3F08BF40F080407047130C75
:101A500006BF12044FF0100C4FF0000C130E04BF21
:101A600012020CF1080C130F04BF12010CF1040C4C
:101A7000930F04BF92000CF1020CD30F04BF52006D
:101A80000CF1010C11464FF00002A0F11F00A0EB79
:101A90000C00704711F0004F08BF704731F0004153
:101AA0003FF4D5AF0B0C06BF09044FF0100C4FF0FC
:101AB000000C0B0E04BF09020CF1080C0B0F04BF45
:101AC00009010CF1040C8B0F04BF89000CF1020C0E
:101AD000CB0F04BF49000CF1010CCCF12003A0EBAB
:101AE0000C0022FA03F302FA0CF241EA030100F1BE
:101AF0000100704720F07F4C80EA030023F07F470D
:101B0000ACEB070303F57C5300F0004003F1FF0347
:101B10002DE980494FEA154B09B44FEA144325EAF1
:101B20000B4E24EA03480FF2042606EB132749085C
:101B30003E785FEA320203FB0667C7F5000707FB42
:101B400006F64FEA54374FEAD64606F1020607FB7F
:101B5000066CCCF1005C4FEA1C472CEA074C07FBF3
:101B600006F40CFB06F504EB15464FEA961634BF57
:101B700000204FF000404FEAD13706FB07FC4FEA48
:101B80001C4C0CFB0BF7D21B03FB0CF761EB0701A2
:101B90000CFB0EF7B0EB074072EB17420CFB08F79B
:101BA00034BFA2EB0742B2EB074261EB17414FEAA9
:101BB0000C444FEA910706FB07FC4FEA1C4C0CFB58
:101BC0000BF7B0EBC74072EB573203FB0CF734BF97
:101BD000A2EBC742B2EBC74261EB57310CFB0EF7E9
:101BE000B0EBC70072EB57720CFB08F734BFA2EBE7
:101BF000C702B2EBC70261EB5771039F4FEA8161E5
:101C000041EA921104EBCC044FEAD1374FEA8262E9
:101C100006FB07FC42EA90124FEA80604FEA1C4C38
:101C20000CFB0BF7D21B03FB0CF761EB07010CFB62
:101C30000EF7B0EB074072EB17420CFB08F734BF0E
:101C4000A2EB0742B2EB074261EB17414FEA8C551A
:101C50004FEA910704EB9C2406FB07FC4FEA1C4C5F
:101C60000CFB0BF7B0EBC74072EB573203FB0CF7E2
:101C700034BFA2EBC742B2EBC74261EB57310CFB5A
:101C80000EF7B0EBC70072EB57720CFB08F734BFCE
:101C9000A2EBC702B2EBC70261EB577115EB4C2503
:101CA0004FEA816141EA92114FEA82624FEAD137ED
:101CB00042EA901206FB07FC44F100044FEA806000
:101CC0004FEA1C4C0CFB0BF7D21B03FB0CF761EB30
:101CD00007010CFB0EF7B0EB074072EB17420CFB51
:101CE00008F734BFA2EB0742B2EB074261EB1741A2
:101CF00015EB1C154FEA813141EA92414FEA8232DD
:101D000042EA90424FEA80304FEA0C7644F10004F8
:101D100048EA03434EEA0B484FF0000EB2EB080CC2
:101D200071EB030724BF624639464EEB0E0E4FF0AF
:101D3000000B0018524149414BEB0B0BB2EB080C66
:101D400071EB03077BF1000B24BF624639464EEB73
:101D50000E0E4FF0000B0018524149414BEB0B0B9C
:101D6000B2EB080C71EB03077BF1000B24BF62465A
:101D700039464EEB0E0E51EA020718BF46F0010637
:101D800016EB0E7655F1000254F1000103D5BDE8C3
:101D90008901BDE80088BDE88901BDE80048B619A1
:101DA000524141EB0101A3F10103704780807F7E26
:101DB0007D7C7B7A797877767675747372717170C1
:101DC0006F6E6E6D6C6C6B6A6A6968686766666573
:101DD0006464636362616160605F5F5E5E5D5D5C01
:101DE0005C5B5B5A5A595958585757565655555572
:101DF0005454535352525251515050504F4F4F4ED2
:101E00004E4D4D4D4C4C4C4B4B4B4A4A4A4949491F
:101E10004848484747474746464645454544444461
:101E2000444343434342424242414141002B9C468A
:101E300030D477002BD01CB54FEA370703B44FF0EE
:101E400010004FF01001BAF1000F06D0BCF1000FE6
:101E5000DCBF40F0080040F008014FF000000FBC6C
:101E6000BDE810400BF1010BBBF1010F08BF5FEAA9
:101E7000170722BF12F1010211F101014FF00041D9
:101E800043F1000300F0004043EA00007047F9D33B
:101E90005708D0E746EA064613F1400F4FEA1646C8
:101EA0001FDD13F1200FDFBF16430A460021203348
:101EB0005B42BED0C3F1200746EA064602FA07F7A6
:101EC0004FEA164646EA0706C3F1200722FA03F254
:101ED00001FA07F721FA03F14FF0000342EA070283
:101EE000A7E746EA020646EA06464FEA164646EAEB
:101EF0000106BCBF46EA0646360C4FF000034FF021
:101F000000024FF0000194E72DE9804C9A46934679
:101F100070B491E8380007C831EA400C48BF34EA91
:101F2000430C03D5FFF7E6FDFFF780FFF0BCBDE8EB
:101F3000008C2DE9804C9A46934670B491E83800A5
:101F400007C810F0804F08BF13F0804F03D100F096
:101F500005F8FFF76BFFF0BCBDE8008C20F07F4771
:101F600080EA030023F07F4C07EB0C03A3F57C53BE
:101F700000F00040A3F1FE0392F0000F00F0B380E8
:101F800095F0000F00F077802DE901494FEA1140EC
:101F90004FEA144621EA004800FB06FC24EA064703
:101FA00008FB06F607FB08F800FB07F718EB0648E6
:101FB0004CEB164C4FEA124B18EB07484FEA15460C
:101FC0004CEB174022EA0B4E0BFB06FC25EA0647BA
:101FD0000EFB06F607FB0EFE0BFB07F71EEB064E8D
:101FE0004CEB164C4FF000061EEB074E4CEB174B1C
:101FF00018EB0B0840F1000018EB0E0B58EB000833
:1020000040F100008F1A4FF000013CBFC943661B2E
:1020100014BFB5EB040C00213CBFC943F61B4FEACB
:1020200017444EEA8E0E27EA04454FEA1C4704FB8C
:1020300007622CEA074C05FB07F70CFB05F604FBCF
:102040000CFC16EB074642EB174216EB0C4642EB34
:102050001C421BEB060658EB0202414146EA9E0673
:1020600001D5BDE80189B619524141EB0101A3F147
:102070000103BDE801894FEA14454FEA114724EAFC
:10208000054621EA074C05FB07F406FB07F70CFBA6
:1020900006F105FB0CFC11EB074144EB17444FEA3A
:1020A000124711EB0C4144EB1C4422EA074C05FBA0
:1020B00007F206FB07F70CFB06F605FB0CFC16EB1C
:1020C000074642EB174216EB0C4642EB1C456A18DA
:1020D00054F1000148BF7047B619524141EB01016C
:1020E000A3F10103704795F0000F37D04FEA11427A
:1020F0004FEA144721EA024624EA074C02FB07F1A3
:1021000006FB07F70CFB06F402FB0CFC14EB074480
:1021100041EB17414FEA154714EB0C4441EB1C41CE
:1021200025EA074C02FB07F506FB07F70CFB06F652
:1021300002FB0CFC16EB074645EB174516EB0C466D
:1021400045EB1C42121951F1000148BF7047B61906
:10215000524141EB0101A3F1010370474FEA1445DD
:102160004FEA114724EA054621EA074C05FB07F12F
:1021700006FB07F70CFB06F24FF0000605FB0CFC14
:1021800012EB074241EB174112EB0C4251EB1C41A1
:1021900048BF7047921841EB0101A3F1010370475A
:1021A00000BFFEE710B50246012906D0022908D07B
:1021B00003290FD0042934D11BE01378A3F1300098
:1021C0002FE01378303B03EB830358005378303B08
:1021D000184426E01378303B642403FB04F0937822
:1021E000303B03EB830300EB4300D378303B1844D0
:1021F00017E01378303B4FF47A7403FB04F0537804
:10220000303B03EBC30404EB031300EB8300937830
:10221000303B03EB830300EB4300D378303B18449F
:1022200000BF00BF10BD70472DE9F04102460025F8
:102230000026002000230024002791F803C00CF0A2
:102240000F0591F803C00CF0100CBCF1000F03D087
:1022500091F802C04CEA050591F800C0BCF1000FEE
:1022600031D0146800202BE04FF0010C0CFA00F381
:10227000B1F800C00CEA03069E4220D183004FF063
:102280000F0C0CFA03F7BC4305FA03FC4CEA0404F8
:1022900091F803C0BCF1280F06D14FF0010C0CFAE5
:1022A00000FCC2F814C00AE091F803C0BCF1480F6A
:1022B00005D14FF0010C0CFA00FCC2F810C0401C14
:1022C0000828D1D31460B1F800C0BCF1FF0F34DD91
:1022D000546800202EE000F1080C4FF0010808FAC5
:1022E0000CF3B1F800C00CEA03069E4221D1830032
:1022F0004FF00F0C0CFA03F7BC4305FA03FC4CEA51
:10230000040491F803C0BCF1280F05D100F1080CBA
:1023100008FA0CF8C2F8148091F803C0BCF1480F19
:1023200007D100F1080C4FF0010808FA0CF8C2F8C8
:102330001080401C0828CED35460BDE8F0810246CE
:10234000002093680B400BB1012000E00020704793
:1023500041617047016170470AB1016100E041616C
:10236000704700BFFEE7000010B520210748FFF7C7
:10237000F1FF80210548FFF7EDFF80210348FFF7BB
:10238000E7FF20210148FFF7E3FF10BD00080140EF
:1023900010B520210548FFF7DDFF80210348FFF736
:1023A000D7FF80210148FFF7D5FF10BD000801408D
:1023B00010B520210348FFF7CDFF20210148FFF78A
:1023C000C7FF10BD0008014008B50121082000F03A
:1023D00089FA2020ADF8000048208DF803006946F6
:1023E0000148FFF721FF08BD000C014010B504466D
:1023F00014B10120104908700F48007888B12021DD
:102400000E48FFF79CFF60B90A2001F0E5FC0020B0
:102410000949087020210948FFF791FF48B90120B8
:1024200010BD20210548FFF78AFF012801D102498C
:1024300008700020F4E700002C000020000C014090
:1024400000BFFEE77047000070B5002100230F2297
:10245000C47804B3154C246804F4E064C4F5E06463
:10246000210AC1F10403CA40447804FA03F18478D4
:102470001440214309010E4C0678A155047804F05C
:102480001F050124AC4005786D11AD0005F1E02574
:10249000C5F8004109E0047804F01F050124AC40B0
:1024A000044D0678761145F8264070BD0CED00E02D
:1024B00000E400E080E100E002490143024A1160CB
:1024C000704700000000FA050CED00E070B5002434
:1024D00018E004F1B000002100F0D7F9002108460F
:1024E00000F0D3F90021102000F0CFF9002505E01D
:1024F0000121002000F0C9F9681CC5B2802DF7DB6E
:10250000601CC4B2082CE4DB70BD2DE9F05F064608
:102510000F4690461C46DDF828A04FF0000BE1174F
:1025200004EB5171C910A4EBC10131B92046E11788
:1025300004EB5171C1F3C70506E02046E11704EB37
:102540005171C910491CCDB23D4615E029463046AF
:1025500000F0A0F8B1460BE059460BF1010B1AF858
:102560000100012100F091F909F1010000F0FF09DB
:10257000C145F1DB681CC5B2A542E7DBBDE8F09FB1
:1025800008B50121042000F0ADF9A020ADF800004D
:1025900010208DF8030003208DF8020069463C48A6
:1025A000FFF742FEA0213A48FFF7D4FE4FF44870EF
:1025B00001F012FC0021AE2000F067F9002108466E
:1025C00000F063F90021102000F05FF900214020A5
:1025D00000F05BF90021B02000F057F900218120C4
:1025E00000F053F90021FF2000F04FF90021A12055
:1025F00000F04BF90021A62000F047F90021A820A7
:1026000000F043F900213F2000F03FF90021C820ED
:1026100000F03BF90021D32000F037F900210846F3
:1026200000F033F90021D52000F02FF9002180209F
:1026300000F02BF90021D82000F027F90021052017
:1026400000F023F90021D92000F01FF90021F1202A
:1026500000F01BF90021DA2000F017F90021122008
:1026600000F013F90021DB2000F00FF900213020E9
:1026700000F00BF900218D2000F007F90021142053
:1026800000F003F90021AF2000F0FFF808BD0000C2
:102690000008014070B504460D4605F1B000002168
:1026A00000F0F3F8102141EA1410002100F0EDF8D9
:1026B00004F00F00002100F0E8F870BD2DE9F041B2
:1026C00080460E461546002731464046FFF7E2FF9A
:1026D00000240AE0124A02EB8511085D012100F096
:1026E000D4F8781CC7B2601CC4B2102CF2DB701C8A
:1026F000C1B24046FFF7CEFF00240CE06900491C40
:10270000074A02EB4111085D012100F0BEF8781C78
:10271000C7B2601CC4B2102CF0DBBDE8F081000031
:10272000740800202DE9F04707460E46904699466A
:1027300000250024A8F12000C5B27F2F02DD00276C
:10274000B01CC6B2B9F1100F24D131463846FFF79C
:10275000A1FF002408E004EB0511194A505C012197
:1027600000F093F8601CC4B2082CF4DB701CC1B2FA
:102770003846FFF78FFF002409E004EB051108310C
:102780000F4A505C012100F080F8601CC4B2082C94
:10279000F3DB12E031463846FFF77CFF00240AE005
:1027A00005EB4501074A02EB4101085D012100F0FC
:1027B0006CF8601CC4B2062CF2DBBDE8F0870000A8
:1027C000A8450008804300082DE9FF5F07469146B1
:1027D0001E460E9D4FF0000A002435E0301B401EBF
:1027E000C1B20A2001F0B0FCB9FBF0F00A21B0FB45
:1027F000F1F201FB1208BAF1000F14D1701EA042D1
:1028000011DDB8F1000F0CD1AB4605EBDB714910BF
:1028100001FB0471C8B22B4620220199FFF782FF09
:1028200010E04FF0010AAB4605EBDB71491001FBEC
:102830000471C8B208F13001CAB22B460199FFF702
:1028400071FF00BF601CC4B2B442C7DBBDE8FF9F8C
:102850002DE9F04104460F461546984600260FE044
:10286000AA5D434639462046FFF75CFF04F10800A5
:10287000C4B2782C02DD0024B81CC7B2701CC6B2EA
:10288000A85D0028ECD1BDE8F08170B504460D4686
:102890001DB1E0B201F0AEF802E0E0B201F094F850
:1028A00070BD704729B1064AD2690243044BDA6110
:1028B00004E0034AD2698243014BDA6170470000A9
:1028C0000010024029B1064A12690243044B1A6102
:1028D00004E0034A12698243014B1A617047000009
:1028E0000010024029B1064A92690243044B9A61E2
:1028F00004E0034A92698243014B9A6170470000E9
:102900000010024029B1064AD2680243044BDA6043
:1029100004E0034AD2688243014BDA60704700004A
:102920000010024030B500210022002400232D4D6C
:102930006D6805F00C0121B1042905D0082923D1C7
:1029400005E0294D056022E0274D05601FE0254D7B
:102950006D6805F47012234D6D6805F4803402250E
:1029600005EB92421CB9214D554305600BE01D4D0E
:102970006D6805F400351DB11C4D5543056002E03E
:10298000194D5543056002E0174D056000BF00BFBB
:10299000144D6D6805F0F0010909154D6B5C056873
:1029A000DD4045600F4D6D6805F4E061090A104D8A
:1029B0006B5C4568DD4085600A4D6D6805F46051CB
:1029C000C90A0B4D6B5C4568DD40C560054D6D68FF
:1029D00005F44041890B074D6B5CC568B5FBF3F509
:1029E000056130BD0010024000127A0000093D0070
:1029F0003A0000204A000020704710B500F002F8AD
:102A000010BD00000CB50020019000903348006814
:102A100040F480303149086000BF3048006800F45D
:102A2000003000900198401C0190009818B901985E
:102A3000B0F5A06FF1D12948006800F4003010B162
:102A40000120009001E0002000900098012843D16F
:102A50002348006840F010002149086008460068DB
:102A600020F0030008600846006840F0020008609B
:102A70001A48406819494860084640684860084656
:102A8000406840F4806048600846406820F47C104C
:102A900048600846406840F4E8104860084600680E
:102AA00040F08070086000BF0C48006800F00070C3
:102AB0000028F9D00948406820F003000749486021
:102AC0000846406840F00200486000BF0348406884
:102AD00000F00C000828F9D10CBD000000100240E5
:102AE00000200240042808D14FF0E021096941F09C
:102AF00004014FF0E022116107E04FF0E021096985
:102B000021F004014FF0E02211617047704700008E
:102B100010B51348006840F00100114908600846EC
:102B20004068104908400E494860084600680E4950
:102B300008400B4908600846006820F480200860BF
:102B40000846406820F4FE0048604FF41F0088608B
:102B5000FFF753FF4FF000600449086010BD00000C
:102B6000001002400000FFF8FFFFF6FE08ED00E055
:102B700010B50121880700F0B0F878B1012188076D
:102B800000F09CF8002407E0054850F82400401CA1
:102B9000034941F82400641C032CF5DB10BD000040
:102BA000101300207FB505460C4601210846FFF7AB
:102BB00079FEADF80850ADF804400020ADF80A00E9
:102BC000ADF8060001A94FF0804000F0A1F8012205
:102BD0001146900700F092F81C208DF800000120AB
:102BE0008DF8010003208DF8020001208DF803000C
:102BF0006846FFF729FC0121880700F062F87FBDD5
:102C000010B501210C4800F068F8A0B101210A4874
:102C100000F054F800240CE0084850F8240030B1CB
:102C2000064850F82400401E044941F82400601C66
:102C3000C4B2032CF0DB10BD0004004004130020DC
:102C40007FB505460C4601210220FFF72BFEADF8AB
:102C50000850ADF804400020ADF80A00ADF80600B9
:102C600001A90E4800F054F8012211460B4800F06B
:102C700045F81D208DF8000000208DF8010003208C
:102C80008DF8020001208DF803006846FFF7DCFB99
:102C90000121024800F015F87FBD0000000400404B
:102CA00010B50121044800F018F818B101210248BC
:102CB00000F004F810BD000000080040CA43028282
:102CC000704721B1028842F00102028004E00288CC
:102CD0004FF6FE731A400280704730B5024600205E
:102CE00000230024158A05EA0103958905EA0104F9
:102CF00013B10CB1012000E0002030BD1AB183896E
:102D00000B43838102E083898B43838170470000FA
:102D1000002202881D4B98420ED01D4B98420BD0CA
:102D2000B0F1804F08D01B4B984205D01A4B984207
:102D300002D01A4B984204D14FF68F731A404B8839
:102D40001A43174B984207D0164B984204D04FF6BF
:102D5000FF431A40CB881A4302808B8883850B88F7
:102D600003850A4B98420BD0094B984208D00E4B72
:102D7000984205D00D4B984202D00D4B984201D19C
:102D80000B7A03860123838270470000002C0140E8
:102D9000003401400004004000080040000C0040E6
:102DA0000010004000140040004001400044014079
:102DB0000048014010B540F225511D4800F0C0F810
:102DC00010B31B4800F078F9C4B21A48008800F428
:102DD0000040C8B91748008800F4804060B10A2C50
:102DE00003D000201349088020E01248008840F4F6
:102DF00000401049088019E00D2C06D10D480088CC
:102E000040F480400B49088010E00A480088C0F375
:102E10000D0009490C5407480088401C05490880EA
:102E200008460088C72801DD0020088010BD00008A
:102E300000380140380000203C0A002010B540F264
:102E400025510A4800F07CF878B10848001D008838
:102E500058B10648001D00880549064A1268885482
:102E600004480068401C0349086010BD004400404D
:102E700020130020380A002001F40072B2F5007F10
:102E800000D100BFCA430280704721B1828942F459
:102E90000052828104E082894DF6FF731A408281DC
:102EA0007047000010B504462048844209D1012132
:102EB0008803FFF727FD00214FF48040FFF722FD34
:102EC00032E01B48844209D101214804FFF7FAFC93
:102ED00000214FF40030FFF7F5FC25E0154884424F
:102EE00009D101218804FFF7EDFC00214FF4802077
:102EF000FFF7E8FC18E01048844209D10121C8041A
:102F0000FFF7E0FC00214FF40020FFF7DBFC0BE0B3
:102F10000A48844208D101210805FFF7D3FC0021AB
:102F20004FF48010FFF7CEFC10BD000000380140C8
:102F30000044004000480040004C00400050004069
:102F400070B50246002400230025002040F66A16D2
:102F5000B14200D100BFC1F3421501F01F030126A9
:102F600006FA03F3012D02D19689334006E0022DC3
:102F700002D1168A334001E0968A33400C120126B2
:102F800006FA04F41688344013B10CB1012000E0B5
:102F9000002070BDF0B50346002400260025002067
:102FA00040F66A17B94200D100BF1846C1F3421477
:102FB00001F01F06012707FA06F5012C01D10C309C
:102FC00004E0022C01D1103000E014301AB107687F
:102FD0002F43076002E00768AF430760F0BD0000C1
:102FE0002DE9F04786B005460E460024A24600BFF4
:102FF000A1460027B08900B100BF2F462C8A4CF6AD
:10300000FF700440F08804432C82AC894EF6F31024
:103010000440B08831890843718908430443AC8176
:10302000AC8A4FF6FF400440B0890443AC8201A84B
:10303000FFF778FC1F48874202D1DDF810A001E0BD
:10304000DDF80CA0A88900F4004040B10AEBCA00EA
:1030500000EB0A1031684900B0FBF1F807E00AEB19
:10306000CA0000EB0A1031688900B0FBF1F8642057
:10307000B8FBF0F004012009642101FB1089A88944
:1030800000F4004040B1322000EBC900B0FBF1F089
:1030900000F00700044308E0322000EB091064212F
:1030A000B0FBF1F000F00F0004432C8106B0BDE846
:1030B000F08700000038014001468888C0F308000E
:1030C000704700BFFEE7000010B586B004464FF41D
:1030D000A060FFF7F1F901214804FFF7E3FB0121AC
:1030E0000420FFF7FFFB2448FFF7DCFE0420ADF8C7
:1030F000140003208DF8160018208DF8170005A97C
:103100001E48FFF791F80820ADF8140004208DF850
:10311000170005A91948FFF787F801940020ADF8BA
:103120000800ADF80A00ADF80C00ADF810000C2056
:10313000ADF80E0001A91048FFF752FF20210E48FC
:10314000FFF79AFE012240F225510B48FFF722FFBC
:1031500026208DF8000000208DF801008DF8020077
:1031600001208DF803006846FFF76EF9012102483F
:10317000FFF78BFE06B010BD004400400008014080
:103180002DE9FF4107460D461646002001900290AA
:10319000039014A11548FDF7C5FA00B30A2000F00A
:1031A0001BFE334601AA12A110480095FDF72CFA28
:1031B00014A10E48FDF7B6FA044624B1621C12A110
:1031C0003846FDF797F80020104908604FF48061F9
:1031D0000648FDF7D8FA012004B0BDE8F0810020D0
:1031E000FAE700002B4950440000000020130020A3
:1031F000255B5E2C5D2C255B5E2C5D2C255B5E3A91
:103200005D0000003A00000025730000380A00202D
:1032100000B587B0002004900590069001900290C0
:1032200003901AA11B48FDF77DFAA0B101AB04AAD7
:1032300019A11848FDF7E8F904A91AA0FDF74EF8FE
:1032400000201E4908604FF480611248FDF79BFA88
:10325000012007B000BD1AA10E48FDF763FA98B12E
:1032600001AB04AA0CA10B48FDF7CEF904A916A0E6
:10327000FDF734F80020114908604FF480610548DB
:10328000FDF781FA0220E4E70020E2E7434F4E4ECB
:103290004543540020130020255B5E2C5D2C255BEC
:1032A0005E2C5D00D3D0BFCDBBA7B6CBBDD3C8EBE2
:1032B000A3AC49443D25730D0A000000380A0020E4
:1032C000434C4F5345440000D3D0BFCDBBA7B6CB32
:1032D000B6CFBFAAA3AC49443D25730D0A00000038
:1032E00000B58DB04FA0FCF7F9FF322000F0E2F9F5
:1032F00028B150A0FCF7F2FF01200DB000BD53A093
:10330000FCF7ECFF54A0FCF7E9FF322157A000F0D6
:103310006DFA20B158A0FCF7E1FF0220EDE75DA0B7
:10332000FCF7DCFF60A0FCF7D9FF64A166A0FCF706
:10333000D5FF68A16AA0FCF7D1FF6CA16FA0FCF7D4
:10334000CDFF72A0FCF7CAFF77A0FCF7C7FF3421BE
:103350006846FDF73AFA65A278A16846FCF7CAFF0D
:103360003221684600F042FA20B178A0FCF7B6FF9F
:103370000320C2E77DA0FCF7B1FF4BA0FCF7AEFF36
:103380003223042253A14DA000F0E6F920B17CA025
:10339000FCF7A4FF0420B0E780A0FCF79FFF84A007
:1033A000FCF79CFF322186A000F020FA20B188A013
:1033B000FCF794FF0520A0E78CA0FCF78FFF8FA0FF
:1033C000FCF78CFF322192A000F010FA20B193A0FC
:1033D000FCF784FF062090E798A0FCF77FFF87A00A
:1033E000FCF77CFF32218AA000F000FA20B18BA00C
:1033F000FCF774FF072080E790A0FCF76FFF94A014
:10340000FCF76CFF322197A000F0F0F920B19AA0F0
:10341000FCF764FF082070E79EA0FCF75FFF002028
:103420006BE70000D7BCB1B8B8B4CEBBC4A3BFE94A
:103430000D0A0000B8B4CEBBCAA7B0DCA3ACD7BCA1
:10344000B1B8D6D8C6F40D0A00000000B8B4CEBB9F
:10345000B3C9B9A60D0A0000D7BCB1B8C9E8D6C334
:103460004150C4A3CABD0D0A0000000041542B43C3
:10347000574D4F44453D3200C9E8D6C34150C4A31F
:10348000CABDCAA7B0DCA3ACD7BCB1B8D6D8C6F405
:103490000D0A0000C9E8D6C34150C4A3CABDB3C9D0
:1034A000B9A60D0A00000000D7BCB1B8C9E8D6C360
:1034B0004150B2CECAFD0D0A0000000045535038FD
:1034C0003236362D4150000053534944A3BA257378
:1034D0000D0A0000313233343536373839000000F8
:1034E000C3DCC2EBA3BA25730D0A00003139322EBA
:1034F0003136382E31302E31000000004150C8C81E
:10350000B5E34950A3BA25730D0A0000BCD3C3DC50
:10351000B7BDCABDA3BA5750415F575041325F5043
:10352000534B0D0A00000000D7BCB1B8C9E8D6C3A0
:103530004150C8C8B5E349500D0A000041542B431F
:10354000495041503D22257322000000C9E8D6C3EE
:103550004150C8C8B5E34950CAA7B0DCA3ACD7BC3A
:10356000B1B8D6D8C6F40D0A00000000C9E8D6C329
:103570004150C8C8B5E34950B3C9B9A60D0A000007
:10358000C9E8D6C34150B2CECAFDCAA7B0DCA3ACCD
:10359000D7BCB1B8D6D8C6F40D0A0000C9E8D6C366
:1035A0004150B2CECAFDB3C9B9A60D0A0000000051
:1035B000D7BCB1B8B9D8B1D5CDB8B4AB0D0A0000FD
:1035C00041542B4349504D4F44453D3000000000CD
:1035D000B9D8B1D5CDB8B4ABCAA7B0DCA3ACD7BC11
:1035E000B1B8D6D8C6F40D0A00000000B9D8B1D5DC
:1035F000CDB8B4ABB3C9B9A60D0A0000D7BCB1B8F9
:10360000BFAAC6F4B6E0C2B7C1ACBDD30D0A000074
:1036100041542B4349504D55583D3100BFAAC6F483
:10362000B6E0C2B7C1ACBDD3CAA7B0DCA3ACD7BCAF
:10363000B1B8D6D8C6F40D0A00000000BFAAC6F47F
:10364000B6E0C2B7C1ACBDD3B3C9B9A60D0A00007C
:10365000D7BCB1B8BFAAC6F4B7FECEF1C6F70D0A03
:103660000000000041542B434950534552564552E7
:103670003D312C3530353000BFAAC6F4B7FECEF14F
:10368000C6F7CAA7B0DCA3ACD7BCB1B8D6D8C6F4CD
:103690000D0A0000BFAAC6F4B7FECEF1C6F7B3C943
:1036A000B9A6A3ACB6CBBFDABAC5353035300D0AF2
:1036B0000000000010B50446002210211348FEF758
:1036C0004BFE4FF4FA7000F087FB012210210F48E7
:1036D000FEF742FE0CE0642000F07EFB0CA10E48D9
:1036E000FDF720F800B107E021460CA0FCF7F6FD3D
:1036F000201EA4F10104EED100BF09A0FCF7EEFDED
:10370000002C01DC012010BD0020FCE70008014076
:103710007265616479000000201300202564200098
:103720000D0A000008B501210420FFF7DBF8102086
:10373000ADF8000003208DF8020010208DF8030082
:1037400069460448FEF770FD012210210148FEF78A
:1037500003FE08BD000801402DE9F04105460E4674
:1037600017461C460020154908604FF48061144834
:10377000FDF709F83B463246294612A000F052FDFB
:103780000CE0642000F028FB15A10D48FCF7CAFFEF
:1037900000B107E0214613A0FCF7A0FD201EA4F114
:1037A0000104EED100BF10A0FCF798FD002C02DC54
:1037B0000120BDE8F0810020FBE70000380A00206E
:1037C0002013002041542B43575341503D22257371
:1037D000222C222573222C342C25640D0A00000093
:1037E0004F4B0000256420000D0A000070B505460F
:1037F0000C460020134908604FF480611248FCF722
:10380000C2FF294611A000F00DFD0CE0642000F07D
:10381000E3FA10A10C48FCF785FF00B107E0214650
:103820000DA0FCF75BFD201EA4F10104EED100BF4A
:103830000AA0FCF753FD002C01DC012070BD002024
:10384000FCE70000380A00202013002025730D0A31
:10385000000000004F4B0000256420000D0A00000E
:103860002DE9F04106460F4690461C46002030499F
:1038700008604FF480612F48FCF785FF42463146CF
:103880002DA000F0CFFC0CE00A2000F0A5FA2FA13B
:103890002848FCF747FF00B107E021462CA0FCF7C1
:1038A0001DFD201EA4F10104EED100BF002C02DC9E
:1038B0000120BDE8F08100201D4908604FF48061BF
:1038C0001C48FCF760FF002504E0795D21A000F0B2
:1038D000A9FC6D1C4545F8DB1FE00A2000F07CFACE
:1038E0001DA11448FCF71EFF40B1002010490860DC
:1038F0004FF480610F48FCF746FF12E018A10D4815
:10390000FCF710FF48B10020094908604FF48061BE
:103910000848FCF738FF0220CBE7201EA4F1010481
:10392000DBD100BF002C01DC0320C2E70020C0E790
:10393000380A00202013002041542B43495053459E
:103940004E443D25642C25640D0A00003E00000015
:10395000256420002563000053454E44204F4B0052
:103960006C696E6B206973206E6F742076616C6970
:10397000640000002DE9F04105462C462021114845
:10398000FEF7E6FC002619E0274607F08007802FA7
:1039900004D180210B48FEF7DDFC03E080210948BB
:1039A000FEF7D6FC6006040E20210648FEF7D2FC86
:1039B00020210448FEF7CCFC701CC6B2082EE3DBC5
:1039C000BDE8F0810008014010B50446FEF7CCFCCC
:1039D0007820FFF7CFFFFEF7EBFC0020FFF7CAFFD0
:1039E000FEF7E6FC2046FFF7C5FFFEF7E1FCFEF719
:1039F000CFFC10BD10B50446FEF7B6FC7820FFF7EB
:103A0000B9FFFEF7D5FC4020FFF7B4FFFEF7D0FC6E
:103A10002046FFF7AFFFFEF7CBFCFEF7B9FC10BD69
:103A2000490050EAC12018BF04204A0D18BF40F0D9
:103A3000010040F2FF72B2EB515F08BF40F002009C
:103A4000012808BF0520704730380A2801D201201C
:103A5000704700207047014600BF704710B504460C
:103A6000124800684068F8B1104800688068D8B112
:103A7000002000F0E5F9B8B90D48007880F00100A9
:103A80000B4908700846007828B10848006841686A
:103A90000020884704E005480068816800208847C6
:103AA0002146002000F05CFB10BD0000500000200B
:103AB0005400002010B504462CB905A0FCF70EFCFC
:103AC0006FF0150010BD0A4804600020FAE70000FE
:103AD000706F696E7465722A20615F736F66745FC0
:103AE00074696D6572206973204E554C4C0000005E
:103AF0005000002038B52024FEF7E8FC00221146D3
:103B00001046FEF7DBFD012200211220FEF7D6FD54
:103B1000022200212420FEF7D1FD032200213620BD
:103B2000FEF7CCFD042200214820FEF7C7FD052248
:103B300000215A20FEF7C2FD062200216C20FEF76C
:103B4000BDFD102316A202210620FEF781FE1023E0
:103B50001AA206210020FEF77BFE102319A20621DF
:103B60003F20FEF775FE1023224606213020FEF787
:103B7000D9FD641C7E2C00DD202410200323224666
:103B8000062100906720FEF71FFEFEF79FFC0F48FE
:103B900008238022002100900846FEF7B6FC38BDBD
:103BA000676F6F6420676F6F64207374756479202A
:103BB0006461792064617920757000004153434944
:103BC000493A0000434F44453A0000005C0400209D
:103BD00038B50446032094FBF0F100FB11400028A7
:103BE0002BD1FEF773FC002211461046FEF766FD4E
:103BF000012200211220FEF761FD02220021242073
:103C0000FEF75CFD032200213620FEF757FD04225B
:103C100000214820FEF752FD052200215A20FEF720
:103C20004DFD062200216C20FEF748FD102311A255
:103C300002210620FEF70CFE1BE0032094FBF0F1AE
:103C400000FB114001280AD1FEF740FC1048082370
:103C50008022002100900846FEF757FC09E0FEF79D
:103C600035FC0C4808238022002100900846FEF70E
:103C70004CFC38BD676F6F6420676F6F642073748E
:103C80007564792064617920646179207570000021
:103C90005C0000205C04002010B504462CB905A08F
:103CA000FCF71CFB6FF0150010BD0A4804600020F3
:103CB000FAE70000706F696E7465722A20615F73A5
:103CC0006F66745F74696D6572206973204E554C20
:103CD0004C0000005800002010B54FF4E130FFF711
:103CE000F3F9FFF71FFD02E0C82000F075F8FFF7B9
:103CF000F7FA0028F8D1044908604FF480610348BE
:103D0000FCF741FD10BD0000380A00202013002000
:103D100070B5FFF77DFA124A12491348FFF730FADF
:103D2000E0B1104A0E4911A0FCF7D8FA0E4916A0CE
:103D3000FCF7D4FA0C48FCF707FD05460848FCF7E9
:103D400003FD064631460648FEF72CFAC4B24FF48E
:103D5000FA732A4604492046FFF782FD70BD000031
:103D6000610800205C080020040B0020C1ACBDD31A
:103D700069643A2573D3D02573D7D6BDDACAFDBEA0
:103D8000DDB5BDC0B40D0A00CAFDBEDD3A25730D18
:103D90000A00000010B56FF00400FEF7A3FE0A4809
:103DA00000680A49B0FBF1F009490870084600783C
:103DB00000EB4001C1EBC0104FF6FF7101EAC000FB
:103DC0000449088010BD00000000002000127A00A5
:103DD0002E000020300000200146114A12884A437C
:103DE0004FF0E0235A6100229A611A46126942F0AC
:103DF00001021A6100BF4FF0E022106900F00102D9
:103E00001AB100F48032002AF5D04FF0E022126996
:103E100022F001024FF0E0231A6100229A617047FC
:103E20003000002000BF054A128802F04002002A3C
:103E3000F9D0C2B2014B1B1D1A80704700380140F7
:103E400010B50446002C04DB114800680068A0424D
:103E500009DC0F480068214602680E48FCF73EFA6C
:103E60006FF0150010BD0A480068806848B1084826
:103E7000006881682046884708B10020F2E70120E9
:103E8000F0E705A0FCF72AFA6FF01500EAE700005A
:103E900058000020984C0008706F696E7465722A93
:103EA00020615F736F66745F74696D6572206973FA
:103EB000204E554C4C0000000146044850F82100AB
:103EC00008B9012070470020FCE70000041300201F
:103ED00038B50446002C01DB012C07DB002221460B
:103EE00013A0FCF7FBF96FF0150038BD04EB44019B
:103EF0001C4A52F821000121FEF7F4FC04EB4400B7
:103F0000184901EB80000089ADF8000010208DF801
:103F1000030003208DF8020004EB4401114A02EB78
:103F2000810148686946FEF77FF90020DDE700005F
:103F30006C6564256420696E697469616C697A6571
:103F4000206661696C6564202C206C6564206E7548
:103F50006D6265722069732030207E2025640D0A11
:103F6000000000001400002070B500250CE0284679
:103F7000FFF7AEFF044634B12A4621460AA0FCF7FB
:103F8000ADF9204670BD6D1C012DF0DB1048FFF728
:103F900091FD04462CB121460EA0FCF79FF9204666
:103FA000F0E70020EEE700006C6564256420696E90
:103FB000697469616C697A65206661696C65642CF5
:103FC00020726574203D20307825780D0A000000AD
:103FD000200000206C6564207265676973746572E7
:103FE000206661696C65642C20726574203D203008
:103FF0007825780010B5044604EB4400154901EB20
:104000008000807A04EB4401124A02EB8101897A34
:1040100009B9012100E0002188420DD104EB4402DE
:104020000C4B03EB8202118904EB440203EB820286
:104030005068FEF78DF90CE004EB4402054B03EBEE
:104040008202118904EB440203EB82025068FEF7FE
:1040500081F910BD1400002010B5044604EB4400A3
:10406000104901EB8000807A80420DD104EB4402BC
:104070000B4603EB8202118904EB440203EB82023C
:104080005068FEF765F90CE004EB4402054B03EBC6
:104090008202118904EB440203EB82025068FEF7AE
:1040A00059F910BD140000200027FA260024FFF75C
:1040B00071FE4FF4E13000F0E3F841F61F410A20B1
:1040C000FEF770FD41F61F410A2000F073F8FFF77C
:1040D0004BFF05461DB1294611A0FCF7FFF8FEF77E
:1040E00073F9FEF74DFAFFF705FDFFF7F5FD16E052
:1040F0000020FEF77BF90746012F0BD1641C092035
:1041000094FBF0F100FB1144FA2004FB00F620467A
:10411000FFF75EFD3046FFF7A1FCFFF7F9FDE7E78B
:104120006C656420696E697469616C697A65206682
:1041300061696C6564202C20726574203D203078A4
:1041400025780D0A0000000010B50246012000E0AD
:1041500050430B1EA1F10104E1B2F9D110BD0000E2
:1041600070B504460D46002C04DB0D48006800685D
:10417000A04209DC0A480068214602680948FCF7A9
:10418000ADF86FF0150070BD05480068406828B1B3
:104190000348006829464268204690470020F2E71D
:1041A00058000020984C0008014A42F8201070473F
:1041B0000413002070B505460E4631462846FEF72A
:1041C0003FFD00F023F80648FFF766FD04462CB1DA
:1041D000214604A0FCF782F8204670BD2046FCE78B
:1041E00068080020736F66742074696D65722072B0
:1041F00065676973746572206661696C65642C20FB
:10420000726574203D20307825780000002004E09D
:104210000021034A42F82010401C0328F8DB7047B5
:10422000041300200FB438B505A800901248009A76
:104230000499FCF741F8002000900F48FCF784FA3D
:10424000054600BF0D48008800F040000028F9D066
:1042500000240CE00848005D0849091D088000BFE3
:104260000648008800F040000028F9D0641CAC42E9
:10427000F0D338BC5DF814FB201700200044004048
:1042800010B586B00446012144F20400FEF72AFB73
:104290004FF40070ADF8140003208DF816001820BC
:1042A0008DF8170005A91C48FDF7BEFF4FF480608C
:1042B000ADF8140004208DF8170005A91648FDF785
:1042C000B3FF25208DF8000003208DF801008DF844
:1042D000020001208DF803006846FEF7B5F801944E
:1042E0000020ADF80800ADF80A00ADF80C00ADF8FC
:1042F00010000C20ADF80E0001A90848FEF770FE72
:10430000012240F225510548FEF744FE01210348F1
:10431000FEF7BBFD06B010BD0008014000380140AB
:1043200010B500290AD00878002807D0054878443D
:10433000FDF72EFB002801D0002010BD0248784474
:1043400010BD0000EA090000E209000010B50029D4
:104350000AD00878002807D005487844FDF718FBF4
:10436000002801D0002010BD0248784410BD000094
:10437000DA090000D2090000FCF76FBDFCF7A4BE0B
:104380000000000000000000002F000000000700F7
:10439000070000147F147F1400242A7F2A12006271
:1043A000640813230036495522500000050300001D
:1043B00000001C224100000041221C000014083EA5
:1043C00008140008083E0808000000A0600000086B
:1043D00008080808000060600000002010080402BF
:1043E000003E5149453E0000427F4000004261517D
:1043F0004946002141454B31001814127F10002717
:1044000045454539003C4A494930000171090503D9
:1044100000364949493600064949291E000036360A
:10442000000000005636000000081422410000146D
:10443000141414140000412214080002015109064A
:1044400000324959513E007C1211127C007F4949CB
:104450004936003E41414122007F4141221C007FFC
:1044600049494941007F09090901003E4149497A0A
:10447000007F0808087F0000417F41000020404184
:104480003F01007F08142241007F40404040007FF0
:10449000020C027F007F0408107F003E4141413E34
:1044A000007F09090906003E4151215E007F09197C
:1044B00029460046494949310001017F0101003F79
:1044C0004040403F001F2040201F003F4038403FF9
:1044D000006314081463000708700807006151495D
:1044E000454300007F41410000552A552A550000F0
:1044F00041417F000004020102040040404040406E
:10450000000001020400002054545478007F484405
:10451000443800384444442000384444487F00383C
:104520005454541800087E0901020018A4A4A47C65
:10453000007F080404780000447D4000004080842F
:104540007D00007F102844000000417F4000007C77
:1045500004180478007C0804047800384444443883
:1045600000FC242424180018242418FC007C0804CF
:10457000040800485454542000043F444020003CA8
:104580004040207C001C2040201C003C4030403C2F
:10459000004428102844001CA0A0A07C00446454BF
:1045A0004C44141414141414000000000000000003
:1045B0000000000000000000000000F80000000003
:1045C000000000333000000000100C06100C060044
:1045D000000000000000000040C07840C0784000AB
:1045E000043F04043F040400007088FC083000000D
:1045F000001820FF211E0000F008F000E018000065
:1046000000211C031E211E0000F00888700000001D
:104610001E2123241927211010160E00000000006F
:104620000000000000000000000000E0180402008C
:10463000000000071820400000020418E0000000FD
:104640000040201807000000404080F080404000FB
:104650000202010F01020200000000F00000000051
:104660000101011F01010100000000000000000025
:1046700080B070000000000000000000000000009A
:104680000001010101010101000000000000000023
:1046900000303000000000000000000080601804BE
:1046A000006018060100000000E010080810E0009B
:1046B000000F102020100F00001010F80000000064
:1046C0000020203F202000000070080808887000AB
:1046D000003028242221300000300888884830002B
:1046E0000018202020110E000000C02010F800004B
:1046F00000070424243F240000F8088888080800E4
:104700000019212020110E0000E0108888180000F8
:10471000000F112020110E0000380808C8380800CA
:104720000000003F0000000000708808088870004A
:10473000001C222121221C0000E010080810E000CB
:104740000000312222110F00000000C0C000000054
:104750000000003030000000000000800000000079
:104760000000806000000000000080402010080071
:10477000000102040810200040404040404040003A
:104780000404040404040400000810204080000015
:104790000020100804020100007048080808F0001A
:1047A0000000003036010000C030C828E810E000EA
:1047B0000718272423140B000000C038E000000075
:1047C000203C23020227382008F8888888700000DF
:1047D000203F202020110E00C030080808083800B3
:1047E000071820202010080008F808080810E0002A
:1047F000203F202020100F0008F88888E8081000CB
:10480000203F20202320180008F88888E80810009E
:10481000203F200003000000C030080808380000D6
:1048200007182020221E020008F808000008F808D7
:10483000203F210101213F20000808F8080800005E
:104840000020203F2020000000000808F808080091
:10485000C08080807F00000008F888C02818080009
:10486000203F20012638200008F808000000000042
:10487000203F20202020300008F8F800F8F8080039
:10488000203F003F003F200008F830C00008F80833
:10489000203F200007183F00E01008080810E00043
:1048A0000F10202020100F0008F808080808F0005A
:1048B000203F210101010000E01008080810E0007D
:1048C0000F18242438504F0008F888888888700012
:1048D000203F2000030C30200070880808083800B2
:1048E0000038202121221C00180808F808081800A8
:1048F0000000203F2000000008F808000008F80829
:10490000001F202020201F000878880000C83808D9
:10491000000007380E010000F80800F80008F80051
:10492000033C0700073C03000818688080681808EB
:1049300020302C03032C30200838C800C838080069
:104940000000203F2000000010080808C8380800B8
:104950002038262120201800000000FE020202005C
:104960000000007F40404000000C30C0000000000C
:10497000000000010638C00000020202FE00000034
:10498000004040407F0000000000040202020400DA
:104990000000000000000000000000000000000017
:1049A00080808080808080800002020400000000FF
:1049B00000000000000000000000808080800000F7
:1049C0000019242222223F2008F8008080000000E5
:1049D000003F112020110E000000008080800000A8
:1049E000000E112020201100000000808088F800B7
:1049F000000E112020103F200000808080800000E9
:104A0000001F222222221300008080F0888888184C
:104A10000020203F20200000000080808080800057
:104A2000006B94949493600008F8008080800000EC
:104A3000203F210000203F200080989800000000C7
:104A40000020203F202000000000008098980000F7
:104A500000C08080807F000008F800008080800017
:104A6000203F24022D302000000808F8000000003C
:104A70000020203F202000008080808080808000F7
:104A8000203F20003F20003F808000808080000089
:104A9000203F210000203F20000080808080000017
:104AA000001F202020201F00808000808000000048
:104AB00080FFA12020110E00000000808080800077
:104AC000000E112020A0FF80808080008080800068
:104AD00020203F2120000100000080808080800095
:104AE0000033242424241900008080E0808000000A
:104AF0000000001F20200000808000000080800057
:104B0000001F202020103F208080800000808080B7
:104B100000010E3008060100808000800080808047
:104B20000F300C030C300F0000808000808080006C
:104B30000020312E0E312000808080000080808097
:104B400080818E7018060100008080808080800047
:104B50000021302C2221300000000000807C020265
:104B600000000000003F404000000000FF00000087
:104B700000000000FF0000000002027C8000000036
:104B80000040403F00000000000601010202040452
:104B90000000000000000000303132333435363779
:104BA0003839414243444546403058003031323371
:104BB0003435363738396162636465664030780071
:104BC00004000008000000000000000200010000D6
:104BD00010000000000000000000000030313233FF
:104BE0003435363738396162636465667870003011
:104BF00031323334353637383941424344454658EB
:104C00005000000002400000000000A00000000072
:104C100005400000000000C8000000000C4000003B
:104C20000000409C00000000194000000020BCBEB5
:104C30000000000034400000BFC91B8E00000004CB
:104C4000B5400000504BCFD06607E2CF0100000016
:104C50006C4100003E8251AADFEEA7340100000043
:104C6000D9420000DCB5A0E23A301F97FFFFFFFFFA
:104C7000B4450000FD25A0C8E9A3C14FFFFFFFFF19
:104C8000FF3F00000000008000000000FF3F000028
:104C90000000008000000000736F66745F74696D2F
:104CA00065725F78202564206E756D62657220697B
:104CB00073206572726F722C20736F66745F7469F3
:104CC0006D65725F782073686F756C642062652013
:104CD0006E6F7420736D616C6C6572207468616EA8
:104CE0002030206F72206C61676572207468616E7D
:104CF0002025640D0A000000444E0008000000203A
:104D00003C0A000028010008C85100083C0A0020A5
:104D100044170000840100081C000000430000004C
:104D2000F8FFFFFF0C0000000E0000000F00000065
:104D30002E0000001001000043000000F8FFFFFFFC
:104D4000004040404040404040404141414141409E
:104D50004040404040404040404040404040404053
:104D600040050202020202020202020202020202E2
:104D700002202020202020202020200202020202E7
:104D8000020290909090909010101010101010103F
:104D9000101010101010101010101010020202024B
:104DA000020288888888888808080808080808088F
:104DB000080808080808080808080808020202028B
:104DC00040000000000000000000000000000000A3
:104DD00000000000000000000000000000000000D3
:104DE00000000000000000000000000000000000C3
:104DF00000000000000000000000000000000000B3
:104E000000000000000000000000000000000000A2
:104E10000000000000000000000000000000000092
:104E20000000000000000000000000000000000082
:104E30000000000000000000000000000000000072
:104E4000000000001184A24A04400A010203040683
:104E500007080910141001401A2014311359401486
:104E600008F53F2A080CE129326936F502040608E4
:104E700016060AFE0AC612E012F062F84EFE7DBB6C
:104E8000C7EF01053EC7BB7DFE180C080CFEFE0CEB
:104E9000082060FEFE60A9118F7848FE82BABA032E
:104EA00009135EAA0101017E6CFEFF0301CBFFFF27
:104EB0000F39BBECC0C0C0271918F9270139297573
:104EC000990B6CFFFF0C01491A0C22E1E1E127016B
:104ED000396C0F1F1801FB1F0F0F092E2701361603
:104EE0008C4222120C26FC020202FC3304FE162025
:104EF0005844FE402A10015912491E4912A92A019C
:104F000023300A24A42E24E4242EA424C00AF84A20
:104F10004C48F8484C4AF82A01013907490D5915FF
:104F2000991F9918091412712BC020A1AB20C00A37
:104F300011300A120A07027F02070A121E0B0A0A20
:104F40000A7F0402560B980A1F2040404050205F01
:104F5000800A01141B80801E1D407808040105385A
:104F60000808F8603DF0F8080C442A78500A14C08C
:104F70006D01132821070C081010101808080810DC
:104F8000302040C18302040C8890F0E0E0E0F0F0B3
:104F9000F0F8F8F8FC01DAFE013915191D1923198A
:104FA000291BD0907A3E828341602047194F0533F8
:104FB00018080C07680880C0E0F0F8FDFF01380C05
:104FC0007F3F3F1F1F8F8F87878783012A8101497A
:104FD0000B191468088F0F0F1F3F3F7F2D0639FDF7
:104FE000F8F0E0C0180A606050D0909E9F8F8F56F6
:104FF000190118088FCF4747476727017B371701EB
:105000004A1F0189112A37214E276747474F36002B
:105010000B350F8F9F9C909090F060607A1FCC268C
:10502000FFFFFCC0802FF0F8FCFEFEFE0F190764A6
:10503000FCF8F00910167BC0F038033C7F0F6E01BE
:10504000070F1F3F86195C100FF9F3E3E7C7C7C7C7
:10505000878787070303011B383C0112181C0103D3
:105060000312380A87C7C7E7E7F3F3F9FC8B1FFF82
:10507000FF3F3F1F072401323CC060100118182079
:105080003010080C048283C1402031130B0F070F2E
:105090000F0F1F1F1F3F90180C074744486F1989B7
:1050A000898F89F904180B89891B64444407A77FF9
:1050B0003F1F38140F0F07070F0B11312041C1821A
:1050C000060408181020204D0C273060C0F5380960
:1050D00002020604041C3020010B131F0E221304CD
:1050E000046A0801110D1004040202EA4B0F1B426E
:1050F0000E12341C04040621F1320313A9411408D2
:10510000B93E2D08404042013AFE060311404010CE
:105110000880804020100C03080810030C10204069
:105120008080201C40301EF63AFFFC0212105960AD
:105130000A167F6000101220242424FE232220203F
:10514000FF20222CA020000F110848847F0241403C
:1051500020130C142241F819754DD0FF9010080946
:105160001181140804031AFFF20615080443807F16
:1051700012C015E00204180D10C0300C40DF1110F1
:105180000D088641203F48444241404078031101C8
:105190000E180804040484E43C27C61B24E40C090C
:1051A00010201302011BFF09010B1449897F111BF9
:1051B000FE2201490501131D80601F02010E157FAB
:0851C00002024282415100008D
:04000005080000ED02
:00000001FF
