:020000040800F2
:10000000C017002035020008A5230008232300089C
:10001000A1230008612100084F2C00080000000007
:10002000000000000000000000000000852500081E
:10003000E7210008000000002D2400089926000890
:100040004F0200084F0200084F0200084F0200084C
:100050004F0200084F0200084F0200084F0200083C
:100060004F0200084F0200084F0200084F0200082C
:100070004F0200084F0200084F0200084F0200081C
:100080004F0200084F0200084F0200084F0200080C
:100090004F0200084F0200084F0200084F020008FC
:1000A0004F0200084F0200084F0200084F020008EC
:1000B000FD2600088D2700082D2800084F020008A3
:1000C0004F0200084F0200084F0200084F020008CC
:1000D0004F02000841290008C92900084F02000802
:1000E0004F0200084F0200084F02000800F002F81B
:1000F00000F090F80AA090E8000C82448344AAF132
:100100000107DA4501D100F085F8AFF2090EBAE82F
:100110000F0013F0010F18BFFB1A43F0010318473B
:10012000D83C0000F83C0000103A24BF78C878C1E1
:10013000FAD8520724BF30C830C144BF04680C60ED
:10014000704700000023002400250026103A28BF35
:1001500078C1FBD8520728BF30C148BF0B60704739
:100160006E2900F0CF83702900F05F81662903F0CB
:100170008F85652903F08C85672903F089856129BE
:1001800003F0888503681B0A28BF41F080016929B4
:1001900000F0D080642900F0CD80752900F0CA807D
:1001A0006F2900F0C684782900F02B81E92900F03E
:1001B0006184E42900F05E84F52900F05B84EF2976
:1001C00000F0C384F82900F02A810368DB0928BF06
:1001D00041F08001632900F0D083732900F0D583BA
:1001E000E32901F0D980F32901F0DE800020704777
:1001F0001FB501F0E9FA04000020002103F032FDF0
:10020000401C60600020002103F016FDE0601FBD6F
:1002100010B510BD01F0AAFA1146FFF7E9FF03F08F
:10022000E1FB01F087FB03B4FFF7F2FF03BC03F02F
:1002300082F900000948804709480047FEE7FEE7C9
:10024000FEE7FEE7FEE7FEE7FEE7FEE7FEE7FEE786
:1002500004480549054A064B704700009D260008E2
:10026000ED000008C0110020C0170020C0130020BE
:10027000C0130020704700001CB50C46064B7B44A1
:1002800069460090204600F056FB0446002069466F
:1002900000F064FB20461CBDDB0600000FB40449DF
:1002A00010B503AA029800F075FB10BC5DF814FBB2
:1002B000340000200FB41CB5084B06AA7B446946E5
:1002C0000090059800F037FB04460020694600F0D6
:1002D00045FB20461CBC5DF814FB00009D06000099
:1002E00070B50C460546012A05D02878800600D551
:1002F000EA69002302E0012305E05B1C934202D27D
:10030000E05C0028F9D1A869E618C01AA861286A3B
:1003100018442862284600F063FA04E0D5E9012178
:1003200014F8010B9047B442F8D3284600F06EFA57
:1003300070BD00002DE9F0410646002410687529C3
:10034000314616A510D000F072FA002802DA4042B9
:1003500013A507E031688A0701D512A502E0490715
:1003600004D511A5012401E000F06AFA00210A2257
:1003700006F1240709E0B0FBF2FCB0FBF2F302FB4C
:100380001C00303078541846491C0028F3D123460D
:100390002A463046BDE8F04100F05BBA000000009C
:1003A0002D0000002B00000020000000F0B40D46DE
:1003B0000188090502D5214C7C4402E01F4C7C4495
:1003C0000E34002100F1240608E002F00F071209A4
:1003D000E75D42EA03721B097754491C52EA03079E
:1003E000F3D102780023120704D5702D06D009B18D
:1003F000022311342246F0BC00F02BBA0123103442
:10040000F8E770B504460D462146106800F018FA6A
:10041000024629462046BDE870400023C6E7D21DAB
:1004200022F00703D3E90023C0E70368126843F012
:10043000200303600823C3610023B7E7DC38000012
:100440002DE9F05F894604464FF0000ADFF874B1E9
:10045000FB44C0F820A02046E1688847002874D0FB
:10046000252806D0D4E901219047206A401C20624B
:10047000F1E700265F462046E168884720280546C8
:1004800007DB312D05D2781910F8200C08B106438E
:10049000F1E7B00701D526F00406C4F81CA0002738
:1004A000C4F818A02A2D09D0284603F03DF838B327
:1004B00004EB8708303DC8F8185019E059F8041BC0
:1004C000204604EB87029161E1688847012F0546C9
:1004D00018D1E069002820DA26F020061DE0D8F8BF
:1004E000180000EB800005EB40003038C8F8180019
:1004F0002046E1688847054603F016F80028EED14B
:10050000012F0AD02E2D08D12046E16888477F1C94
:100510000546022F46F02006C4DBA069002803DA56
:10052000404246F00106A061F00701D026F0100617
:100530006C2D0BD0682D09D04C2D39D06A2D35D0BB
:10054000742D35D07A2D33D016E038E0E1682F468F
:1005500020468847B842054609D16C2F26D04FF473
:100560008060E168064320468847054604E06C2F1A
:100570001AD04FF4807006430DB3A5F1410019283D
:1005800002D8203546F400664A46294620462660B1
:100590004E46FFF7E5FD80B101280BD0F61D26F091
:1005A000070000F1080956E74020E4E78020D8E77B
:1005B0000020D6E706F104094DE7284652E7206AF5
:1005C000BDE8F09F6C3800000FB400B58DB010A9E5
:1005D000099000910B904FF0FF300A9000200C9092
:1005E000064878440690064878446A4607900F9972
:1005F00009A800F0BBFA0DB05DF814FBA7050000D8
:10060000BF0500002DE9FF5F4FF000089946144632
:1006100046469169D2E901A7DDF838B001988847CC
:10062000054659EA0B0005D009E0A1690198761C3E
:1006300088470546216A284688470028F5D1681C66
:1006400003D05FEACA7005D015E04FF0FF3004B068
:10065000BDE8F09F2068011D2160D0F800800AE00D
:100660005FEACA7001D108F8015BA169761C0198A4
:100670007F1E88470546002F1ADD681C18D0B9F187
:10068000000F0DD0E81705EBD060421120F01F00DD
:1006900059F822102A1A012090400142E0D107E0C7
:1006A000BBF1000FDCD12846216A88470028D7D04B
:1006B000E16901988847BBF1000F07D1002E05DDE5
:1006C0005FEACA7002D1002188F80010A068B84221
:1006D00003DDBBF1000F03D017B16FF00100B6E7E7
:1006E0003046B4E730B505460B462A4613F8014BB1
:1006F00012F8010B08B1A042F8D01CB1002802D0BA
:100700006D1CF1E7284630BD10B5431C02E010F81F
:10071000011B71B18107FAD14FF0013202C88C1A66
:100720008C4314EAC211F9D0C01A0A0603D0C01EC5
:1007300010BDC01A10BD0A0401D0801E10BD0902F0
:10074000FCD0401E10BD4FF000020429C0F0128002
:1007500010F0030C00F01B80CCF1040CBCF1020F74
:1007600018BF00F8012BA8BF20F8022BA1EB0C0149
:1007700000F00DB85FEAC17C24BF00F8012B00F83F
:10078000012B48BF00F8012B70474FF0000200B565
:10079000134694469646203922BFA0E80C50A0E8A4
:1007A0000C50B1F12001BFF4F7AF090728BFA0E852
:1007B0000C5048BF0CC05DF804EB890028BF40F81E
:1007C000042B08BF704748BF20F8022B11F0804F60
:1007D00018BF00F8012B704770477047704770478B
:1007E00070B5044685690068C10601D5302600E071
:1007F0002026C00707D070BDD4E9012130469047BC
:10080000206A401C20626D1EF6D570BD70B504468E
:1008100085690078C00707D170BDD4E90121202087
:100820009047206A401C20626D1EF6D570BD096895
:100830004A0501D540B27047C905FCD500B27047E2
:1008400009684A0501D5C0B27047C905FCD580B218
:1008500070472DE9F0470D4699469246044600F14F
:1008600024080168880604D5E06921F010012160A0
:1008700000E00120A84201DD471B00E00027A1693C
:100880007A1902EB0900081AA0612078C00602D488
:100890002046FFF7A5FF002608E0D4E901211AF859
:1008A00006009047206A401C761C20624E45F4DB0F
:1008B0002078C0060AD52046FFF792FF06E0D4E96B
:1008C000012130209047206A401C2062381EA7F189
:1008D0000107F4DC07E0D4E9012118F8050090478E
:1008E000206A401C2062281EA5F10105F3DC204689
:1008F000FFF78CFF2078000602D50220BDE8F087C4
:100900000120FBE711680268006A530501D50870F1
:100910000AE0D30501D5088006E0130603D5C21707
:10092000C1E9000200E008600120704701694A1C2B
:1009300002610878704700B58FB0CDE90131002120
:10094000059105497944CDE9031011466846FFF742
:1009500077FD0FB000BD0000E5FFFFFF0A6802F859
:10096000010B0A60704710B5436913B1AFF3008003
:1009700001E0FFF7B5FC012010BD127800F1240161
:100980000A7000224A700122EDE711684FF0FF3231
:10099000E9E70000074B70B50D467B44FFF7CBFF3E
:1009A0000446284600F0BEFE10B14FF0FF3070BD87
:1009B000204670BDC32D00002DE9FF5F15468A4615
:1009C0000446DFF8AC80F8440027D8E900103E4622
:1009D000CDE9001010E03AF816106A4602A800F0BF
:1009E000A5FE411C07D02178890603D5E269391894
:1009F00091420DD80744761C2078800602D5E06924
:100A0000B84205DDAE42E6DB3AF816000028E2D136
:100A1000A069C01BA0612046FFF7E2FED8E90010E4
:100A2000CDE90010002017E03AF818106A4602A835
:100A300000F07CFEB0F1FF3F81460BD000250DF1A8
:100A4000080B05E0D4E901211BF8050090476D1C57
:100A50004D45F7D308F10100B0428046E4DB206A3F
:100A6000384420622046FFF7D1FEBDE8FF9F00001A
:100A70000A3300002DE9F0418046D21D22F0070222
:100A80000025D2E90002F52915A614D0011E72F145
:100A9000000106DA0023D0EB030063EB020211A68B
:100AA00008E0D8F800108B0701D50FA602E049072F
:100AB00001D50EA601251146002408F1240704E003
:100AC00000F084F830323A55641C50EA0102F7D144
:100AD0002B46324621464046BDE8F041FFF7B9BEFD
:100AE000000000002D0000002B000000200000008E
:100AF00030B4002100F1240408E002F00705D20818
:100B0000303542EA4372DB086554491C52EA03055A
:100B1000F3D10468002310A2250707D5A40600D44A
:100B200021B1C46901230DA2641EC46130BCFFF76A
:100B300090BE10B5044621461068FFF781FE0246BC
:100B40002046BDE810400023D2E7D21D22F0070165
:100B5000D1E90023CCE700000000000030000000D5
:100B6000026811441378016018467047D160054946
:100B7000794451610449794411620021116111469F
:100B800000F016BCEDFFFFFFDD000000426842B13F
:100B9000016811F8013B23B1521EC0E9001218464A
:100BA00070470121C160881E704742685AB1C3680E
:100BB000016843B983688B4205D0491E521CC0E9C5
:100BC0000012002070474FF0FF30704730B5B0F191
:100BD0000A024FEA900E71F100034EEA817EB0EBFB
:100BE0000E0061EB91014FEA101E4EEA017E10EB00
:100BF0000E0041EB11114FEA102E4EEA016E10EB80
:100C00000E0041EB11214FEA104E4EEA014E10EB5F
:100C10000E0041EB1141401841F100014FEAD000B4
:100C200040EA41704FEAD10110EB80054FEA8104A0
:100C300044EA907444EB01046D1944EB0404521B24
:100C4000A3414FF0000348BF0A3200D530BD401C1D
:100C500041F1000130BD10B5044600F0ADFD006863
:100C6000005D00F0010010BD70472DE9FF4F0C46FC
:100C70001E464FF0FF378BB0D2E90001DDF86080EF
:100C80000A908A46C1F30A5505B93D460021084637
:100C90004FF00000BAF1000F00F4400005DA00EB5D
:100CA00080004FF4400101EA50004FEA9059B9F139
:100CB000010F00DDB9460A9850EA4A000ED044F60A
:100CC0001050A5F2FF3545432F14B8F1000F1ED088
:100CD0007542291E1EDDC9F100021CE0B8F1010FAA
:100CE0004FF0000001D0302103E0F24305E0215431
:100CF000401CB042FBDB30460022002121540B99FE
:100D0000C1F80880C1E900200FB0BDE8F08FBD1B1D
:100D10006D1CDEE74A4600DA694206A800F098FD3D
:100D200006AB93E8070003AB83E8070050460A9937
:100D300000F04EFE8DE80700A0F500501F3800902F
:100D40000398002D0ADD42F21F014A4608440023A1
:100D500003A90390684601F0B7F809E0A0F5005038
:100D60004A461F38002303A90390684601F0C1F8E2
:100D70008DE807000004000C03D04FF0FF3041085D
:100D800000E01046B8F1000F03D000220092154693
:100D90001EE0751E05D4FFF719FF303262556D1E37
:100DA000F9D5B3460122084302D000227F1C04E09B
:100DB0002078302801D100227F1E002A099784D094
:100DC0001DE0112D07DAFFF701FF303262556D1C6F
:100DD00050EA0102F5D1084302D00098C8B10EE0F4
:100DE0000021681E05E0235C625C63542254401EAF
:100DF000491C8142F7DBAB46A81B401E099000202E
:100E000004F80B000B98099AC0F80880C0E9002B81
:100E10007AE711264FF0000857E72DE9F04F884692
:100E20000446D21D22F0070191B0D1E90001CDE9BD
:100E30000A0102F065FB02460B98C00F01D02D207D
:100E400007E02068810701D52B2002E0202101EA7C
:100E5000C000032A099001D0072A05DB034641465A
:100E6000204600F0B5FC0BE12078800601D5E06952
:100E700000E00620B8F1650F814606D0B8F1660F94
:100E800018D0B8F1670F70D131E00020B9F1110F1F
:100E9000009001DB112301E009F101030AAA01A975
:100EA0000CA8FFF7E2FEDDE90C70002609F1010550
:100EB000834647E001204B4600904FF000470AAAC6
:100EC00001A90CA8FFF7D1FEDDE90DB00C995D4634
:100ED000002610B909F101000D18B9EB050003D483
:100EE000C0F1FF3609F10105A5EB09002BE0B9F1CE
:100EF000010F01DA4FF001090020B9F1110F009044
:100F0000484601DD112300E003460AAA01A90CA806
:100F1000FFF7ABFEDDE90C704D46002683462078D6
:100F200000070AD4AB4500DA5D4601A8012D04DDB7
:100F3000411911F8011C302907D04F4502DA17F189
:100F4000040F04DA012082460FE06D1EEEE7002F49
:100F500002DCED1B3E4403E0781CA84200DD7D1C52
:100F6000B81B00F1010A4FF000472078000703D4B6
:100F7000AA4501DB4FF0FF3A0021B7F1004F0DF118
:100F800043088DF8431024D002202B23002F01DAD0
:100F90007F422D230A21021EA0F1010000DC5FB177
:100FA00097FBF1FC97FBF1F201FB1C7C17460CF15F
:100FB000300C08F801CDEEE7A8F10100037021889C
:100FC000090501D5452100E06521A0F1010800F8DF
:100FD000011C09980FA9A1EB0807FF1D00B1012012
:100FE000411901EBEA70A1693844081A401EA0615A
:100FF0002078C00602D42046FFF7F2FB099828B1FA
:10100000D4E901219047206A401C20622078C00664
:1010100022D52046FFF7E4FB1EE0002E04DBB3459B
:1010200002DD01A8805D00E03020D4E90121904775
:10103000206A401C2062761CAAF101005FEA000AC7
:101040000AD100F0C1FBC0680168405CD4E901210D
:101050009047206A401C2062281EA5F10105DCDCB7
:1010600007E0D4E9012118F8010B9047206A401CE1
:101070002062381EA7F10107F3DC2046FFF7C6FB0C
:10108000032011B041E600002DE9F04F04460D4663
:10109000D21D22F0070089B0D0E9009748463946B2
:1010A00002F02EFA0246F80F01D02D2307E0206847
:1010B000810701D52B2302E0202101EAC0038DF82E
:1010C00020300BB1012000E00020032A824601D02D
:1010D000072A04DB2946204600F07AFB3FE120780E
:1010E000800601D40D2500E0E569C7F30A560D2DF1
:1010F00049DA00214FEA175B08464FF00000002F45
:1011000000F4400007DA00EB80004FF4400100EBF0
:10111000D07001EA60008115012901DD4FF0FF3137
:1011200000224FEA850CBCF1180F06D31346ACF130
:1011300018004FF08052C24003E04FF4801323FAAE
:101140000CF30CF10C0CBCF1200F04D3ACF1200C0F
:1011500009FA0CF001E007FA0CF000294FF0004802
:1011600001DD18B90FE00ED140450CD319EB02098F
:101170005F4121B9404502D19F4329EA0209BBEBF7
:10118000175F00D0761C2088000502D57B48784484
:1011900002E07A487844193808AA302302F80A3065
:1011A000037C0AF10101002E0AF1020A53546A4637
:1011B00002DC4FF0300101E04FF031014FF0010847
:1011C0008DF8001002D0A6F2FF3603E059EA47017D
:1011D00000D06B4E002D02DC2178090704D54FF0BA
:1011E00002082E218DF80110C44600210BE0C7F340
:1011F00003433F01C35C491C6D1E02F808300529FA
:1012000008F1010801DA002DF1DC00210CE000EB0F
:101210001973491C1B786D1E082902F808304FEA23
:10122000091908F1010801DA002DF0DC21688B06AC
:1012300002D516E0A8F10108E04505DD02EB080340
:1012400013F8013C302BF5D0B8F1000F09DD02EBAB
:10125000080313F8013C2E2B03D1090701D4A8F190
:101260000108002D05DD3E2102F808106D1E08F171
:101270000108407C002E02F8080008F1010804DA99
:101280002D20764202F8080002E02B2002F8080028
:101290000A214FF47A70864208F101080BDB96FBB5
:1012A000F0F3303302F8083096FBF0F308F1010850
:1012B00000FB136601E0642E0CDB642096FBF0F368
:1012C000303302F8083096FBF0F308F1010800FB18
:1012D000136601E00A2E06DB96FBF1F0303002F8CF
:1012E000080008F1010896FBF1F001FB10603030B6
:1012F00002F80800A16908F1010808EB050202EBF9
:101300000A00081AA0612078C00602D42046FFF720
:1013100067FA216A08AE01EB0A00206204E0D4E912
:10132000012116F8010B9047BAF1010AF7D2207893
:10133000C00602D52046FFF753FA6E4609E016F8BC
:10134000010B3E280FD0D4E901219047206A401CB0
:101350002062B8F10108F2D22046FFF757FA09B02F
:101360000320BDE8F08F206A2844206203E0D4E91E
:101370000121302090476D1EEBD3F8E75D2B000074
:1013800002FCFFFF10B5436913B1AFF3008001E029
:10139000FFF712FB012010BD128800F124018284A6
:1013A0000022C2840122EDE711684FF0FF32E9E725
:1013B0002DE9F34F4FF0000A0C4656468DB0012040
:1013C0000C9001F10C000B9062690B980121904781
:1013D000051E2DD0252D2CD0216A8847C0B1626909
:1013E0000B9801219047216A88470028F7D162694C
:1013F000411E0B98904700E0761CA1690D98884724
:10140000216A88470028F7D1E1690D988847DBE712
:10141000A1690D988847A842074601D1761CD3E7F9
:10142000E1690D9888477F1C02D1BAF1000F6FD097
:101430006BE162690B9800273D46394690472A28A0
:1014400004D162690B98012190470125DFF8D08211
:1014500062690B9801219047A0F130010A290AD254
:101460004745E5DC07EB870100EB4107303FDFD460
:1014700045F01005ECE7E90601D46FF000476C2851
:101480000AD04C2814D0682815D06A280DD07428AA
:101490001CD07A281AD01DE062690B980121904770
:1014A0006C2802D045F0040514E045F002050DE07B
:1014B00045F020050AE062690B98012190476828F1
:1014C00002D045F0080505E045F4006562690B9817
:1014D00001219047C4E9015765283DD019DC5828FF
:1014E0007AD00CDC452837D004DC252826D04128CA
:1014F0009ED131E046282FD0472899D12CE05B2897
:1015000077D0612828D063287CD0642823D15AE082
:10151000F6E06F2848D008DC66281DD067281BD06D
:10152000692821D06E2816D127E0702845D073286D
:1015300068D0752847D078280DD14DE0A1690D9865
:101540008847252805463FF469AFE1690D9888472B
:101550006D1C3FF46AAFD8E00D9923466A466FF0E0
:101560000100AFF30080C5E045F0400023464FF096
:1015700000026060A80736D43EE0E8077FF447AF7A
:101580002068011D21600068290501D506701BE750
:10159000290701D5068017E7A90703D5F117C0E988
:1015A000006111E706600FE745F0400023464FF069
:1015B00008026060A80716D41EE040F60E0125EA76
:1015C0000100606016E045F0400023464FF00A023B
:1015D0006060A80707D40FE045F040006060A807EE
:1015E00008D5234610220D996FF00100AFF300805B
:1015F00080E007E0102223460D996FF00100AFF361
:10160000008077E04FF0000963284F46C8464B46FC
:10161000CB4602D05B2806D038E0E80601D4012092
:10162000A060012732E06269D4F80CB00B98012168
:1016300090475E2807D14FF0010949466269D4F806
:101640000CB00B989047216939B900210A4603ABC9
:1016500043F82120491C0829FADBD8B3216949B392
:1016600008F1010862690B98012190475D28F4D1C7
:10167000B9F1000F09D0002003A951F82020D2436E
:1016800041F82020401C0828F7DB03AB2069002824
:1016900020794FEA40701ED05B462246CDF800808C
:1016A000CDE901970D9900286FF0010020DAAFF322
:1016B00000801FE0C11703AA00EBD1614B1121F09C
:1016C0001F0102EB8302411A136801208840034383
:1016D0001360C7E719E00D99224600286FF001005A
:1016E000009702DAAFF3008004E0FEF78BFF01E021
:1016F000AFF3008000280ADA401C06D10C9820B114
:101700004FF0FF300FB0BDE8F08F5046FAE7E90721
:1017100001D10AF1010A064400200C9054E60000B1
:10172000CCCCCC0C007B00F08000704770B5164626
:101730000C46054600F040F8036893F801010128C3
:1017400006D0FF2C0FD8185D68B101202C7070BD39
:10175000D3F807013246214603F207130344284613
:10176000BDE8704018474FF0FF3070BD754600F07F
:10177000EBF8AE4605006946534620F00700854663
:1017800018B020B5FEF764FDBDE820404FF000061C
:101790004FF000074FF000084FF0000B21F0070159
:1017A000AC46ACE8C009ACE8C009ACE8C009ACE89C
:1017B000C0098D467047000010B500F005F8001D07
:1017C00010BD00BFA1240000004870478011002018
:1017D0002DE9F0411F46044603260168072A01F45B
:1017E000006004DB08B116A505E016A503E008B10A
:1017F00015A500E015A521F010002060A069C01E0D
:10180000A0610FB1401EA0612046FEF7E9FF4FB175
:10181000D4E9012138469047206A401C2062C01C50
:10182000206206E0206AFAE7D4E9012115F8010BED
:101830009047761EF8D22046FEF7E8FFBDE8F0811B
:101840004E414E006E616E00494E4600696E660064
:101850002DE9F047814616468AB0354878440DC8D0
:101860008DE80D0032487844801C03AC0DC884E834
:101870000D0041F69B300844372190FBF1F290FBBC
:10188000F1F5A5F1800501FB12041B3C02D5644271
:10189000012000E00020DFF898A080460027FA44ED
:1018A000AAF1BE0A0EE0E0070AD03246684607EB0E
:1018B000470101230AEB810100F01BFB8DE80700C3
:1018C00064107F1C002CEED1194F7F44AE3F19E00D
:1018D000E80715D007EB04100DF1180A90E80E0088
:1018E0008AE80E00C068F04201D19819089032468B
:1018F000012306A903A800F0FCFA03AB83E8070064
:101900006D10641C002DE3D14FF00103324669468F
:10191000B8F1000F03A802D000F0D6FA01E000F001
:10192000E8FAC9E90001C9F808200AB0BDE8F08763
:101930002025000010B50446AFF300802046BDE826
:101940001040FEF770BC0000004870476011002096
:101950004FF0013C50F8042B51F8043B9A4221D13E
:10196000A2EB0C03934313EACC1317D150F8042BCA
:1019700051F8043B9A4215D1A2EB0C03934313EAAE
:10198000CC130BD150F8042B51F8043B9A4209D1E7
:10199000A2EB0C03934313EACC13DBD04FF000000F
:1019A000704700BFD01A01BAB1FA81F101F01801F5
:1019B00022FA01F0CB40C1F12001DBB2C0B2C01A63
:1019C0002CFA01F3D11A914311EAC311E6D1704701
:1019D0005FEA400C08BF91F0000F4FEA8C234FEAFA
:1019E000C12243EA51514FEA1C5018BF00F5F040A4
:1019F0004FEA300018BF41F000415FEA6C5C00F034
:101A00002980BCF1FF3F08BF40F080407047130CB5
:101A100006BF12044FF0100C4FF0000C130E04BF61
:101A200012020CF1080C130F04BF12010CF1040C8C
:101A3000930F04BF92000CF1020CD30F04BF5200AD
:101A40000CF1010C11464FF00002A0F11F00A0EBB9
:101A50000C00704711F0004F08BF704731F0004193
:101A60003FF4D5AF0B0C06BF09044FF0100C4FF03C
:101A7000000C0B0E04BF09020CF1080C0B0F04BF85
:101A800009010CF1040C8B0F04BF89000CF1020C4E
:101A9000CB0F04BF49000CF1010CCCF12003A0EBEB
:101AA0000C0022FA03F302FA0CF241EA030100F1FE
:101AB0000100704720F07F4C80EA030023F07F474D
:101AC000ACEB070303F57C5300F0004003F1FF0388
:101AD0002DE980494FEA154B09B44FEA144325EA32
:101AE0000B4E24EA03480FF2042606EB132749089D
:101AF0003E785FEA320203FB0667C7F5000707FB83
:101B000006F64FEA54374FEAD64606F1020607FBBF
:101B1000066CCCF1005C4FEA1C472CEA074C07FB33
:101B200006F40CFB06F504EB15464FEA961634BF97
:101B300000204FF000404FEAD13706FB07FC4FEA88
:101B40001C4C0CFB0BF7D21B03FB0CF761EB0701E2
:101B50000CFB0EF7B0EB074072EB17420CFB08F7DB
:101B600034BFA2EB0742B2EB074261EB17414FEAE9
:101B70000C444FEA910706FB07FC4FEA1C4C0CFB98
:101B80000BF7B0EBC74072EB573203FB0CF734BFD7
:101B9000A2EBC742B2EBC74261EB57310CFB0EF729
:101BA000B0EBC70072EB57720CFB08F734BFA2EB27
:101BB000C702B2EBC70261EB5771039F4FEA816125
:101BC00041EA921104EBCC044FEAD1374FEA82622A
:101BD00006FB07FC42EA90124FEA80604FEA1C4C79
:101BE0000CFB0BF7D21B03FB0CF761EB07010CFBA3
:101BF0000EF7B0EB074072EB17420CFB08F734BF4F
:101C0000A2EB0742B2EB074261EB17414FEA8C555A
:101C10004FEA910704EB9C2406FB07FC4FEA1C4C9F
:101C20000CFB0BF7B0EBC74072EB573203FB0CF722
:101C300034BFA2EBC742B2EBC74261EB57310CFB9A
:101C40000EF7B0EBC70072EB57720CFB08F734BF0E
:101C5000A2EBC702B2EBC70261EB577115EB4C2543
:101C60004FEA816141EA92114FEA82624FEAD1372D
:101C700042EA901206FB07FC44F100044FEA806040
:101C80004FEA1C4C0CFB0BF7D21B03FB0CF761EB70
:101C900007010CFB0EF7B0EB074072EB17420CFB91
:101CA00008F734BFA2EB0742B2EB074261EB1741E2
:101CB00015EB1C154FEA813141EA92414FEA82321D
:101CC00042EA90424FEA80304FEA0C7644F1000439
:101CD00048EA03434EEA0B484FF0000EB2EB080C03
:101CE00071EB030724BF624639464EEB0E0E4FF0F0
:101CF000000B0018524149414BEB0B0BB2EB080CA7
:101D000071EB03077BF1000B24BF624639464EEBB3
:101D10000E0E4FF0000B0018524149414BEB0B0BDC
:101D2000B2EB080C71EB03077BF1000B24BF62469A
:101D300039464EEB0E0E51EA020718BF46F0010677
:101D400016EB0E7655F1000254F1000103D5BDE803
:101D50008901BDE80088BDE88901BDE80048B619E1
:101D6000524141EB0101A3F10103704780807F7E66
:101D70007D7C7B7A79787776767574737271717001
:101D80006F6E6E6D6C6C6B6A6A69686867666665B3
:101D90006464636362616160605F5F5E5E5D5D5C41
:101DA0005C5B5B5A5A5959585857575656555555B2
:101DB0005454535352525251515050504F4F4F4E12
:101DC0004E4D4D4D4C4C4C4B4B4B4A4A4A49494960
:101DD00048484847474747464646454545444444A2
:101DE000444343434342424242414141002B9C46CB
:101DF00030D477002BD01CB54FEA370703B44FF02F
:101E000010004FF01001BAF1000F06D0BCF1000F26
:101E1000DCBF40F0080040F008014FF000000FBCAC
:101E2000BDE810400BF1010BBBF1010F08BF5FEAE9
:101E3000170722BF12F1010211F101014FF0004119
:101E400043F1000300F0004043EA00007047F9D37B
:101E50005708D0E746EA064613F1400F4FEA164608
:101E60001FDD13F1200FDFBF16430A460021203388
:101E70005B42BED0C3F1200746EA064602FA07F7E6
:101E80004FEA164646EA0706C3F1200722FA03F294
:101E900001FA07F721FA03F14FF0000342EA0702C3
:101EA000A7E746EA020646EA06464FEA164646EA2B
:101EB0000106BCBF46EA0646360C4FF000034FF061
:101EC00000024FF0000194E72DE9804C9A469346BA
:101ED00070B491E8380007C831EA400C48BF34EAD2
:101EE000430C03D5FFF7E6FDFFF780FFF0BCBDE82C
:101EF000008C2DE9804C9A46934670B491E83800E6
:101F000007C810F0804F08BF13F0804F03D100F0D6
:101F100005F8FFF76BFFF0BCBDE8008C20F07F47B1
:101F200080EA030023F07F4C07EB0C03A3F57C53FE
:101F300000F00040A3F1FE0392F0000F00F0B38028
:101F400095F0000F00F077802DE901494FEA11402C
:101F50004FEA144621EA004800FB06FC24EA064743
:101F600008FB06F607FB08F800FB07F718EB064826
:101F70004CEB164C4FEA124B18EB07484FEA15464C
:101F80004CEB174022EA0B4E0BFB06FC25EA0647FA
:101F90000EFB06F607FB0EFE0BFB07F71EEB064ECD
:101FA0004CEB164C4FF000061EEB074E4CEB174B5C
:101FB00018EB0B0840F1000018EB0E0B58EB000873
:101FC00040F100008F1A4FF000013CBFC943661B6F
:101FD00014BFB5EB040C00213CBFC943F61B4FEA0C
:101FE00017444EEA8E0E27EA04454FEA1C4704FBCD
:101FF00007622CEA074C05FB07F70CFB05F604FB10
:102000000CFC16EB074642EB174216EB0C4642EB74
:102010001C421BEB060658EB0202414146EA9E06B3
:1020200001D5BDE80189B619524141EB0101A3F187
:102030000103BDE801894FEA14454FEA114724EA3C
:10204000054621EA074C05FB07F406FB07F70CFBE6
:1020500006F105FB0CFC11EB074144EB17444FEA7A
:10206000124711EB0C4144EB1C4422EA074C05FBE0
:1020700007F206FB07F70CFB06F605FB0CFC16EB5C
:10208000074642EB174216EB0C4642EB1C456A181A
:1020900054F1000148BF7047B619524141EB0101AC
:1020A000A3F10103704795F0000F37D04FEA1142BA
:1020B0004FEA144721EA024624EA074C02FB07F1E3
:1020C00006FB07F70CFB06F402FB0CFC14EB0744C1
:1020D00041EB17414FEA154714EB0C4441EB1C410F
:1020E00025EA074C02FB07F506FB07F70CFB06F693
:1020F00002FB0CFC16EB074645EB174516EB0C46AE
:1021000045EB1C42121951F1000148BF7047B61946
:10211000524141EB0101A3F1010370474FEA14451D
:102120004FEA114724EA054621EA074C05FB07F16F
:1021300006FB07F70CFB06F24FF0000605FB0CFC54
:1021400012EB074241EB174112EB0C4251EB1C41E1
:1021500048BF7047921841EB0101A3F1010370479A
:1021600000BFFEE710B50246012906D0022908D0BB
:1021700003290FD0042934D11BE01378A3F13000D8
:102180002FE01378303B03EB830358005378303B48
:10219000184426E01378303B642403FB04F0937862
:1021A000303B03EB830300EB4300D378303B184410
:1021B00017E01378303B4FF47A7403FB04F0537844
:1021C000303B03EBC30404EB031300EB8300937871
:1021D000303B03EB830300EB4300D378303B1844E0
:1021E00000BF00BF10BD70472DE9F0410246002539
:1021F0000026002000230024002791F803C00CF0E3
:102200000F0591F803C00CF0100CBCF1000F03D0C7
:1022100091F802C04CEA050591F800C0BCF1000F2E
:1022200031D0146800202BE04FF0010C0CFA00F3C1
:10223000B1F800C00CEA03069E4220D183004FF0A3
:102240000F0C0CFA03F7BC4305FA03FC4CEA040438
:1022500091F803C0BCF1280F06D14FF0010C0CFA25
:1022600000FCC2F814C00AE091F803C0BCF1480FAA
:1022700005D14FF0010C0CFA00FCC2F810C0401C54
:102280000828D1D31460B1F800C0BCF1FF0F34DDD1
:10229000546800202EE000F1080C4FF0010808FA05
:1022A0000CF3B1F800C00CEA03069E4221D1830072
:1022B0004FF00F0C0CFA03F7BC4305FA03FC4CEA91
:1022C000040491F803C0BCF1280F05D100F1080CFB
:1022D00008FA0CF8C2F8148091F803C0BCF1480F5A
:1022E00007D100F1080C4FF0010808FA0CF8C2F809
:1022F0001080401C0828CED35460BDE8F08102460F
:10230000002093680B400BB1012000E000207047D3
:1023100041617047016170470AB1016100E04161AC
:10232000704700BFFEE7000008B50121082000F05B
:102330009FF82020ADF8000048208DF80300694682
:102340000148FFF751FF08BD000C014010B50446DD
:1023500014B10120104908700F48007888B120217D
:102360000E48FFF7CCFF60B90A2001F0D3F9002036
:102370000949087020210948FFF7C1FF48B9012029
:1023800010BD20210548FFF7BAFF012801D10249FD
:1023900008700020F4E700002C000020000C014031
:1023A00000BFFEE77047000070B5002100230F2238
:1023B000C47804B3154C246804F4E064C4F5E06404
:1023C000210AC1F10403CA40447804FA03F1847875
:1023D0001440214309010E4C0678A155047804F0FD
:1023E0001F050124AC4005786D11AD0005F1E02515
:1023F000C5F8004109E0047804F01F050124AC4051
:10240000044D0678761145F8264070BD0CED00E0CD
:1024100000E400E080E100E002490143024A11606B
:10242000704700000000FA050CED00E07047000066
:1024300029B1064AD2690243044BDA6104E0034A37
:10244000D2698243014BDA617047000000100240FC
:1024500029B1064A12690243044B1A6104E0034A97
:1024600012698243014B1A6170470000001002405C
:1024700029B1064A92690243044B9A6104E0034A77
:1024800092698243014B9A6170470000001002403C
:1024900029B1064AD2680243044BDA6004E0034AD9
:1024A000D2688243014BDA6070470000001002409E
:1024B00030B500210022002400232D4D6D6805F069
:1024C0000C0121B1042905D0082923D105E0294DAB
:1024D000056022E0274D05601FE0254D6D6805F47D
:1024E0007012234D6D6805F48034022505EB92428D
:1024F0001CB9214D554305600BE01D4D6D6805F479
:1025000000351DB11C4D5543056002E0194D554382
:10251000056002E0174D056000BF00BF144D6D68F7
:1025200005F0F0010909154D6B5C0568DD4045605B
:102530000F4D6D6805F4E061090A104D6B5C45684C
:10254000DD4085600A4D6D6805F46051C90A0B4D88
:102550006B5C4568DD40C560054D6D6805F4404124
:10256000890B074D6B5CC568B5FBF3F5056130BDA4
:102570000010024000127A0000093D003A000020DD
:102580004A000020704710B500F002F810BD0000AE
:102590000CB50020019000903348006840F4803072
:1025A0003149086000BF3048006800F400300090F6
:1025B0000198401C0190009818B90198B0F5A06FDF
:1025C000F1D12948006800F4003010B101200090DA
:1025D00001E0002000900098012843D123480068C2
:1025E00040F01000214908600846006820F0030010
:1025F00008600846006840F0020008601A48406819
:10260000194948600846406848600846406840F4F8
:10261000806048600846406820F47C1048600846A6
:10262000406840F4E81048600846006840F0807058
:10263000086000BF0C48006800F000700028F9D066
:102640000948406820F00300074948600846406890
:1026500040F00200486000BF0348406800F00C00F2
:102660000828F9D10CBD00000010024000200240F3
:10267000042808D14FF0E021096941F004014FF02E
:10268000E022116107E04FF0E021096921F0040127
:102690004FF0E022116170477047000010B51348F9
:1026A000006840F001001149086008464068104980
:1026B00008400E494860084600680E4908400B492A
:1026C00008600846006820F48020086008464068DA
:1026D00020F4FE0048604FF41F008860FFF753FFAE
:1026E0004FF000600449086010BD00000010024077
:1026F0000000FFF8FFFFF6FE08ED00E010B5012135
:10270000880700F0B0F878B10121880700F09CF844
:10271000002407E0054850F82400401C034941F814
:102720002400641C032CF5DB10BD000050090020C0
:102730007FB505460C4601210846FFF779FEADF846
:102740000850ADF804400020ADF80A00ADF80600CE
:1027500001A94FF0804000F0A1F801221146900736
:1027600000F092F81C208DF8000001208DF8010087
:1027700003208DF8020001208DF803006846FFF762
:1027800013FE0121880700F062F87FBD10B501211A
:102790000C4800F068F8A0B101210A4800F054F894
:1027A00000240CE0084850F8240030B1064850F8E6
:1027B0002400401E044941F82400601CC4B2032CCC
:1027C000F0DB10BD00040040440900207FB5054641
:1027D0000C4601210220FFF72BFEADF80850ADF8A2
:1027E00004400020ADF80A00ADF8060001A90E482B
:1027F00000F054F8012211460B4800F045F81D2066
:102800008DF8000000208DF8010003208DF80200F3
:1028100001208DF803006846FFF7C6FD012102483C
:1028200000F015F87FBD00000004004010B5012144
:10283000044800F018F818B10121024800F004F82B
:1028400010BD000000080040CA430282704721B159
:10285000028842F00102028004E002884FF6FE7313
:102860001A400280704730B5024600200023002441
:10287000158A05EA0103958905EA010413B10CB133
:10288000012000E0002030BD1AB183890B43838111
:1028900002E083898B438381704700000022028815
:1028A0001D4B98420ED01D4B98420BD0B0F1804F7B
:1028B00008D01B4B984205D01A4B984202D01A4BB5
:1028C000984204D14FF68F731A404B881A43174B26
:1028D000984207D0164B984204D04FF6FF431A4057
:1028E000CB881A4302808B8883850B8803850A4B2B
:1028F00098420BD0094B984208D00E4B984205D015
:102900000D4B984202D00D4B984201D10B7A0386B1
:102910000123838270470000002C014000340140F5
:102920000004004000080040000C0040001000407F
:1029300000140040004001400044014000480140B4
:1029400010B540F225511D4800F0C0F810B31B48E7
:1029500000F078F9C4B21A48008800F40040C8B901
:102960001748008800F4804060B10A2C03D0002092
:102970001349088020E01248008840F400401049C4
:10298000088019E00D2C06D10D48008840F48040E5
:102990000B49088010E00A480088C0F30D0009497F
:1029A0000C5407480088401C0549088008460088E8
:1029B000C72801DD0020088010BD0000003801405C
:1029C000380000207C00002010B540F225510A4854
:1029D00000F07CF878B10848001D008858B106481E
:1029E000001D00880549064A12688854044800689A
:1029F000401C0349086010BD0044004060090020ED
:102A00007800002001F40072B2F5007F00D100BF11
:102A1000CA430280704721B1828942F40052828108
:102A200004E082894DF6FF731A40828170470000EE
:102A300010B504462048844209D101218803FFF7DC
:102A400027FD00214FF48040FFF722FD32E01B48B4
:102A5000844209D101214804FFF7FAFC00214FF418
:102A60000030FFF7F5FC25E01548844209D101212B
:102A70008804FFF7EDFC00214FF48020FFF7E8FC0D
:102A800018E01048844209D10121C804FFF7E0FC96
:102A900000214FF40020FFF7DBFC0BE00A488442E2
:102AA00008D101210805FFF7D3FC00214FF4801065
:102AB000FFF7CEFC10BD000000380140004400408C
:102AC00000480040004C00400050004070B50246F5
:102AD000002400230025002040F66A16B14200D1F0
:102AE00000BFC1F3421501F01F03012606FA03F3EC
:102AF000012D02D19689334006E0022D02D1168ABB
:102B0000334001E0968A33400C12012606FA04F4A1
:102B10001688344013B10CB1012000E0002070BDD4
:102B2000F0B50346002400260025002040F66A1771
:102B3000B94200D100BF1846C1F3421401F01F068C
:102B4000012707FA06F5012C01D10C3004E0022C14
:102B500001D1103000E014301AB107682F4307602C
:102B600002E00768AF430760F0BD00002DE9F047C1
:102B700086B005460E460024A24600BFA1460027A7
:102B8000B08900B100BF2F462C8A4CF6FF7004407C
:102B9000F08804432C82AC894EF6F3100440B088D0
:102BA00031890843718908430443AC81AC8A4FF6EC
:102BB000FF400440B0890443AC8201A8FFF778FCD1
:102BC0001F48874202D1DDF810A001E0DDF80CA01B
:102BD000A88900F4004040B10AEBCA0000EB0A10DB
:102BE00031684900B0FBF1F807E00AEBCA0000EBDE
:102BF0000A1031688900B0FBF1F86420B8FBF0F0EE
:102C000004012009642101FB1089A88900F4004017
:102C100040B1322000EBC900B0FBF1F000F007003A
:102C2000044308E0322000EB09106421B0FBF1F00E
:102C300000F00F0004432C8106B0BDE8F0870000CF
:102C40000038014001468888C0F30800704700BF83
:102C5000FEE7000010B586B004464FF4A060FFF711
:102C6000DBFB01214804FFF7E3FB01210420FFF710
:102C7000FFFB2448FFF7DCFE0420ADF8140003201E
:102C80008DF8160018208DF8170005A91E48FFF7CB
:102C9000ABFA0820ADF8140004208DF8170005A940
:102CA0001948FFF7A1FA01940020ADF80800ADF82B
:102CB0000A00ADF80C00ADF810000C20ADF80E00C5
:102CC00001A91048FFF752FF20210E48FFF79AFE96
:102CD000012240F225510B48FFF722FF26208DF8F4
:102CE000000000208DF801008DF8020001208DF811
:102CF00003006846FFF758FB01210248FFF78BFEEF
:102D000006B010BD00440040000801402DE9FF411D
:102D100007460D461646002001900290039014A12C
:102D20001548FDF7DFFC00B30A2000F0F3FC334642
:102D300001AA12A110480095FDF746FC14A10E4807
:102D4000FDF7D0FC044624B1621C12A13846FDF701
:102D5000B1FA0020104908604FF480610648FDF781
:102D6000F2FC012004B0BDE8F0810020FAE7000089
:102D70002B4950440000000060090020255B5E2CB8
:102D80005D2C255B5E2C5D2C255B5E3A5D000000B2
:102D90003A000000257300007800002000B587B0DD
:102DA00000200490059006900190029003901AA1D3
:102DB0001B48FDF797FCA0B101AB04AA19A1184864
:102DC000FDF702FC04A91AA0FDF768FA00201E49CD
:102DD00008604FF480611248FDF7B5FC012007B090
:102DE00000BD1AA10E48FDF77DFC98B101AB04AA05
:102DF0000CA10B48FDF7E8FB04A916A0FDF74EFA5D
:102E00000020114908604FF480610548FDF79BFCE4
:102E10000220E4E70020E2E7434F4E4E45435400D2
:102E200060090020255B5E2C5D2C255B5E2C5D001F
:102E3000D3D0BFCDBBA7B6CBBDD3C8EBA3AC494461
:102E40003D25730D0A00000078000020434C4F53CD
:102E500045440000D3D0BFCDBBA7B6CBB6CFBFAAE9
:102E6000A3AC49443D25730D0A00000000B58DB0A8
:102E70004FA0FDF713FA322000F0E2F928B150A07C
:102E8000FDF70CFA01200DB000BD53A0FDF706FAC6
:102E900054A0FDF703FA322157A000F06DFA20B1DB
:102EA00058A0FDF7FBF90220EDE75DA0FDF7F6F96C
:102EB00060A0FDF7F3F964A166A0FDF7EFF968A142
:102EC0006AA0FDF7EBF96CA16FA0FDF7E7F972A01E
:102ED000FDF7E4F977A0FDF7E1F934216846FDF745
:102EE00054FC65A278A16846FDF7E4F932216846F2
:102EF00000F042FA20B178A0FDF7D0F90320C2E734
:102F00007DA0FDF7CBF94BA0FDF7C8F932230422D1
:102F100053A14DA000F0E6F920B17CA0FDF7BEF969
:102F20000420B0E780A0FDF7B9F984A0FDF7B6F959
:102F3000322186A000F020FA20B188A0FDF7AEF97A
:102F40000520A0E78CA0FDF7A9F98FA0FDF7A6F951
:102F5000322192A000F010FA20B193A0FDF79EF963
:102F6000062090E798A0FDF799F987A0FDF796F95C
:102F700032218AA000F000FA20B18BA0FDF78EF973
:102F8000072080E790A0FDF789F994A0FDF786F966
:102F9000322197A000F0F0F920B19AA0FDF77EF958
:102FA000082070E79EA0FDF779F900206BE700008C
:102FB000D7BCB1B8B8B4CEBBC4A3BFE90D0A0000FA
:102FC000B8B4CEBBCAA7B0DCA3ACD7BCB1B8D6D816
:102FD000C6F40D0A00000000B8B4CEBBB3C9B9A650
:102FE0000D0A0000D7BCB1B8C9E8D6C34150C4A38C
:102FF000CABD0D0A0000000041542B43574D4F44F9
:10300000453D3200C9E8D6C34150C4A3CABDCAA7D2
:10301000B0DCA3ACD7BCB1B8D6D8C6F40D0A00005A
:10302000C9E8D6C34150C4A3CABDB3C9B9A60D0AE5
:1030300000000000D7BCB1B8C9E8D6C34150B2CE39
:10304000CAFD0D0A00000000455350383236362DB7
:103050004150000053534944A3BA25730D0A0000A0
:10306000313233343536373839000000C3DCC2EB37
:10307000A3BA25730D0A00003139322E3136382EAD
:1030800031302E31000000004150C8C8B5E349502E
:10309000A3BA25730D0A0000BCD3C3DCB7BDCABDFB
:1030A000A3BA5750415F575041325F50534B0D0AFE
:1030B00000000000D7BCB1B8C9E8D6C34150C8C8A9
:1030C000B5E349500D0A000041542B43495041508B
:1030D0003D22257322000000C9E8D6C34150C8C86C
:1030E000B5E34950CAA7B0DCA3ACD7BCB1B8D6D8B9
:1030F000C6F40D0A00000000C9E8D6C34150C8C894
:10310000B5E34950B3C9B9A60D0A0000C9E8D6C352
:103110004150B2CECAFDCAA7B0DCA3ACD7BCB1B88F
:10312000D6D8C6F40D0A0000C9E8D6C34150B2CEC5
:10313000CAFDB3C9B9A60D0A00000000D7BCB1B8DA
:10314000B9D8B1D5CDB8B4AB0D0A000041542B436A
:1031500049504D4F44453D3000000000B9D8B1D52D
:10316000CDB8B4ABCAA7B0DCA3ACD7BCB1B8D6D885
:10317000C6F40D0A00000000B9D8B1D5CDB8B4AB83
:10318000B3C9B9A60D0A0000D7BCB1B8BFAAC6F42E
:10319000B6E0C2B7C1ACBDD30D0A000041542B4309
:1031A00049504D55583D3100BFAAC6F4B6E0C2B7EC
:1031B000C1ACBDD3CAA7B0DCA3ACD7BCB1B8D6D81C
:1031C000C6F40D0A00000000BFAAC6F4B6E0C2B7FC
:1031D000C1ACBDD3B3C9B9A60D0A0000D7BCB1B804
:1031E000BFAAC6F4B7FECEF1C6F70D0A0000000074
:1031F00041542B4349505345525645523D312C358D
:1032000030353000BFAAC6F4B7FECEF1C6F7CAA764
:10321000B0DCA3ACD7BCB1B8D6D8C6F40D0A000058
:10322000BFAAC6F4B7FECEF1C6F7B3C9B9A6A3AC20
:10323000B6CBBFDABAC5353035300D0A0000000014
:1032400010B50446002210211348FFF765F84FF42B
:10325000FA7000F05FFA012210210F48FFF75CF8C6
:103260000CE0642000F056FA0CA10E48FDF73AFA83
:1032700000B107E021460CA0FDF710F8201EA4F1D4
:103280000104EED100BF09A0FDF708F8002C01DC15
:10329000012010BD0020FCE7000801407265616458
:1032A0007900000060090020256420000D0A00005C
:1032B00008B501210420FFF7DBF81020ADF800006D
:1032C00003208DF8020010208DF8030069460448A1
:1032D000FEF78AFF012210210148FFF71DF808BD03
:1032E000000801402DE9F04105460E4617461C46F0
:1032F0000020154908604FF480611448FDF723FA57
:103300003B463246294612A000F018FC0CE064202F
:1033100000F000FA15A10D48FDF7E4F900B107E04F
:10332000214613A0FCF7BAFF201EA4F10104EED140
:1033300000BF10A0FCF7B2FF002C02DC0120BDE8AA
:10334000F0810020FBE700007800002060090020E9
:1033500041542B43575341503D222573222C2225A3
:1033600073222C342C25640D0A0000004F4B000002
:10337000256420000D0A000070B505460C460020AB
:10338000134908604FF480611248FDF7DCF92946C3
:1033900011A000F0D3FB0CE0642000F0BBF910A1F9
:1033A0000C48FDF79FF900B107E021460DA0FCF79E
:1033B00075FF201EA4F10104EED100BF0AA0FCF7A6
:1033C0006DFF002C01DC012070BD0020FCE7000037
:1033D000780000206009002025730D0A000000001D
:1033E0004F4B0000256420000D0A00002DE9F0413C
:1033F00006460F4690461C460020304908604FF4B0
:1034000080612F48FDF79FF9424631462DA000F01C
:1034100095FB0CE00A2000F07DF92FA12848FDF76C
:1034200061F900B107E021462CA0FCF737FF201E10
:10343000A4F10104EED100BF002C02DC0120BDE8A4
:10344000F08100201D4908604FF480611C48FDF7A1
:103450007AF9002504E0795D21A000F06FFB6D1C76
:103460004545F8DB1FE00A2000F054F91DA114487F
:10347000FDF738F940B10020104908604FF4806131
:103480000F48FDF760F912E018A10D48FDF72AF981
:1034900048B10020094908604FF480610848FDF7F1
:1034A00052F90220CBE7201EA4F10104DBD100BFBA
:1034B000002C01DC0320C2E70020C0E778000020D8
:1034C0006009002041542B43495053454E443D254B
:1034D000642C25640D0A00003E00000025642000D5
:1034E0002563000053454E44204F4B006C696E6BC2
:1034F000206973206E6F742076616C69640000002F
:10350000490050EAC12018BF04204A0D18BF40F0FE
:10351000010040F2FF72B2EB515F08BF40F00200C1
:10352000012808BF0520704730380A2801D2012041
:10353000704700207047014600BF704710B5044631
:10354000124800684068F8B1104800688068D8B137
:10355000002000F013F9B8B90D48007880F00100A0
:103560000B4908700846007828B10848006841688F
:103570000020884704E005480068816800208847EB
:103580002146002000F078FA10BD00005000002015
:103590005400002010B504462CB905A0FCF77EFEAF
:1035A0006FF0150010BD0A4804600020FAE7000023
:1035B000706F696E7465722A20615F736F66745FE5
:1035C00074696D6572206973204E554C4C00000083
:1035D0005000002010B504462CB905A0FCF75EFE93
:1035E0006FF0150010BD0A4804600020FAE70000E3
:1035F000706F696E7465722A20615F736F66745FA5
:1036000074696D6572206973204E554C4C00000042
:103610005800002010B54FF4E130FFF71BFBFFF717
:1036200047FE02E0C82000F075F8FFF71FFC0028F5
:10363000F8D1044908604FF480610348FDF783F82E
:1036400010BD0000780000206009002070B5FFF771
:10365000A5FB124A12491348FFF758FBE0B1104A84
:103660000E4911A0FCF71AFE0E4916A0FCF716FE33
:103670000C48FDF749F805460848FDF745F80646A9
:1036800031460648FEF76EFDC4B24FF4FA732A467F
:1036900004492046FFF7AAFE70BD0000610000202B
:1036A0005C00002044010020C1ACBDD369643A2510
:1036B00073D3D02573D7D6BDDACAFDBEDDB5BDC084
:1036C000B40D0A00CAFDBEDD3A25730D0A000000E4
:1036D00010B56FF00400FEF7CBFF0A4800680A49F6
:1036E000B0FBF1F0094908700846007800EB400192
:1036F000C1EBC0104FF6FF7101EAC0000449088019
:1037000010BD00000000002000127A002E000020F2
:10371000300000200146114A12884A434FF0E0234E
:103720005A6100229A611A46126942F001021A6136
:1037300000BF4FF0E022106900F001021AB100F45E
:103740008032002AF5D04FF0E022126922F0010207
:103750004FF0E0231A6100229A6170473000002088
:1037600000BF054A128802F04002002AF9D0C2B216
:10377000014B1B1D1A8070470038014010B50446EC
:10378000002C04DB114800680068A04209DC0F48E7
:103790000068214602680E48FCF780FD6FF01500B6
:1037A00010BD0A480068806848B108480068816810
:1037B0002046884708B10020F2E70120F0E705A085
:1037C000FCF76CFD6FF01500EAE7000058000020E0
:1037D000983D0008706F696E7465722A20615F738E
:1037E0006F66745F74696D6572206973204E554C05
:1037F0004C0000000146044850F8210008B901209F
:1038000070470020FCE700004409002038B504465A
:10381000002C01DB012C07DB0022214613A0FCF762
:103820003DFD6FF0150038BD04EB44011C4A52F811
:1038300021000121FEF71CFE04EB4400184901EBB6
:1038400080000089ADF8000010208DF803000320EF
:103850008DF8020004EB4401114A02EB8101486833
:103860006946FEF7C1FC0020DDE700006C656425B9
:103870006420696E697469616C697A652066616942
:103880006C6564202C206C6564206E756D626572B9
:103890002069732030207E2025640D0A000000007E
:1038A0001400002070B500250CE02846FFF7AEFF9D
:1038B000044634B12A4621460AA0FCF7EFFC204614
:1038C00070BD6D1C012DF0DB1048FFF763FE044650
:1038D0002CB121460EA0FCF7E1FC2046F0E70020C9
:1038E000EEE700006C6564256420696E69746961A7
:1038F0006C697A65206661696C65642C20726574F8
:10390000203D20307825780D0A000000200000209E
:103910006C6564207265676973746572206661699D
:103920006C65642C20726574203D20307825780009
:1039300010B5044604EB4400154901EB8000807A81
:1039400004EB4401124A02EB8101897A09B9012191
:1039500000E0002188420DD104EB44020C4B03EB44
:103960008202118904EB440203EB82025068FEF7E5
:10397000CFFC0CE004EB4402054B03EB82021189FF
:1039800004EB440203EB82025068FEF7C3FC10BD57
:103990001400002010B5044604EB4400104901EB6C
:1039A0008000807A80420DD104EB44020B4603EB89
:1039B0008202118904EB440203EB82025068FEF795
:1039C000A7FC0CE004EB4402054B03EB82021189D7
:1039D00004EB440203EB82025068FEF79BFC10BD2F
:1039E000140000200027FA260024FFF771FE4FF490
:1039F000E13000F0D1F841F61F410A20FEF798FEB1
:103A000041F61F410A2000F061F8FFF74BFF054621
:103A10001DB129460EA0FCF741FCFEF785FCFFF71F
:103A2000F9FD13E00020FEF791FC0746012F08D1B5
:103A3000641C0A2094FBF0F100FB1144FA2004FB03
:103A400000F63046FFF77AFDFFF700FEEAE70000D8
:103A50006C656420696E697469616C697A65206659
:103A600061696C6564202C20726574203D2030787B
:103A700025780D0A0000000070B504460D46002CA4
:103A800004DB0D4800680068A04209DC0A480068B1
:103A9000214602680948FCF701FC6FF0150070BD73
:103AA00005480068406828B1034800682946426814
:103AB000204690470020F2E758000020983D00087B
:103AC000014A42F8201070474409002070B50546AD
:103AD0000E4631462846FEF779FE00F023F80648E8
:103AE000FFF778FD04462CB1214604A0FCF7D6FB75
:103AF000204670BD2046FCE768000020736F6674A6
:103B00002074696D657220726567697374657220CF
:103B10006661696C65642C20726574203D20307884
:103B200025780000002004E00021034A42F820101C
:103B3000401C0328F8DB7047440900200FB438B557
:103B400005A800901248009A0499FCF795FB002004
:103B500000900F48FCF7D8FD054600BF0D480088CF
:103B600000F040000028F9D000240CE00848005D77
:103B70000849091D088000BF0648008800F0400081
:103B80000028F9D0641CAC42F0D338BC5DF814FBBB
:103B9000600D00200044004010B586B004460121AD
:103BA00044F20400FEF764FC4FF40070ADF814001A
:103BB00003208DF8160018208DF8170005A91C4861
:103BC000FEF712FB4FF48060ADF8140004208DF86E
:103BD000170005A91648FEF707FB25208DF8000001
:103BE00003208DF801008DF8020001208DF80300FC
:103BF0006846FEF7D9FB01940020ADF80800ADF847
:103C00000A00ADF80C00ADF810000C20ADF80E0065
:103C100001A90848FEF7AAFF012240F225510548F4
:103C2000FEF77EFF01210348FEF7F5FE06B010BD4A
:103C3000000801400038014010B500290AD008787A
:103C4000002807D005487844FDF782FE002801D0FF
:103C5000002010BD0248784410BD0000D2010000D1
:103C6000CA01000010B500290AD00878002807D042
:103C700005487844FDF76CFE002801D0002010BDF7
:103C80000248784410BD0000C2010000BA010000E3
:103C9000FDF7C3B8FDF7F8B9303132333435363774
:103CA0003839414243444546403058003031323380
:103CB0003435363738396162636465664030780080
:103CC00004000008000000000000000200010000E5
:103CD000100000000000000000000000303132330E
:103CE0003435363738396162636465667870003020
:103CF00031323334353637383941424344454658FA
:103D00005000000002400000000000A00000000081
:103D100005400000000000C8000000000C4000004A
:103D20000000409C00000000194000000020BCBEC4
:103D30000000000034400000BFC91B8E00000004DA
:103D4000B5400000504BCFD06607E2CF0100000025
:103D50006C4100003E8251AADFEEA7340100000052
:103D6000D9420000DCB5A0E23A301F97FFFFFFFF09
:103D7000B4450000FD25A0C8E9A3C14FFFFFFFFF28
:103D8000FF3F00000000008000000000FF3F000037
:103D90000000008000000000736F66745F74696D3E
:103DA00065725F78202564206E756D62657220698A
:103DB00073206572726F722C20736F66745F746902
:103DC0006D65725F782073686F756C642062652022
:103DD0006E6F7420736D616C6C6572207468616EB7
:103DE0002030206F72206C61676572207468616E8C
:103DF0002025640D0A000000443F00080000002058
:103E00007C00000028010008C03F00087C00002062
:103E100044170000440100081C000000430000009B
:103E2000F8FFFFFF0C0000000E0000000F00000074
:103E30002E0000001001000043000000F8FFFFFF0B
:103E400000404040404040404040414141414140AD
:103E50004040404040404040404040404040404062
:103E600040050202020202020202020202020202F1
:103E700002202020202020202020200202020202F6
:103E8000020290909090909010101010101010104E
:103E9000101010101010101010101010020202025A
:103EA000020288888888888808080808080808089E
:103EB000080808080808080808080808020202029A
:103EC00040000000000000000000000000000000B2
:103ED00000000000000000000000000000000000E2
:103EE00000000000000000000000000000000000D2
:103EF00000000000000000000000000000000000C2
:103F000000000000000000000000000000000000B1
:103F100000000000000000000000000000000000A1
:103F20000000000000000000000000000000000091
:103F30000000000000000000000000000000000081
:103F40000000000000A24A04000000000000000081
:103F500001020304060708091000000000100140D8
:103F600000200000010000009539000831390008E8
:103F70000100000000000000000000000000000040
:103F800000000102030401020304060708090204F9
:103F90000608000000000000000000000000000013
:103FA000000000000000000000000000030000000E
:103FB000C13A0008F53700080000000000000000CA
:04000005080000ED02
:00000001FF
